{
	"contracts/FundMe.sol": {
		"FundMe": {
			"abi": [
				{
					"inputs": [],
					"name": "fund",
					"outputs": [],
					"stateMutability": "payable",
					"type": "function"
				},
				{
					"inputs": [],
					"name": "getConversionRate",
					"outputs": [],
					"stateMutability": "nonpayable",
					"type": "function"
				},
				{
					"inputs": [],
					"name": "getPrice",
					"outputs": [
						{
							"internalType": "int256",
							"name": "",
							"type": "int256"
						}
					],
					"stateMutability": "view",
					"type": "function"
				},
				{
					"inputs": [],
					"name": "getVersion",
					"outputs": [
						{
							"internalType": "uint256",
							"name": "",
							"type": "uint256"
						}
					],
					"stateMutability": "view",
					"type": "function"
				},
				{
					"inputs": [],
					"name": "minimumUsd",
					"outputs": [
						{
							"internalType": "uint256",
							"name": "",
							"type": "uint256"
						}
					],
					"stateMutability": "view",
					"type": "function"
				}
			],
			"devdoc": {
				"kind": "dev",
				"methods": {},
				"version": 1
			},
			"evm": {
				"assembly": "    /* \"contracts/FundMe.sol\":140:943  contract FundMe{... */\n  mstore(0x40, 0x80)\n    /* \"contracts/FundMe.sol\":190:192  50 */\n  0x32\n    /* \"contracts/FundMe.sol\":162:192  uint256 public minimumUsd = 50 */\n  0x00\n  sstore\n    /* \"contracts/FundMe.sol\":140:943  contract FundMe{... */\n  callvalue\n  dup1\n  iszero\n  tag_1\n  jumpi\n  0x00\n  dup1\n  revert\ntag_1:\n  pop\n  dataSize(sub_0)\n  dup1\n  dataOffset(sub_0)\n  0x00\n  codecopy\n  0x00\n  return\nstop\n\nsub_0: assembly {\n        /* \"contracts/FundMe.sol\":140:943  contract FundMe{... */\n      mstore(0x40, 0x80)\n      jumpi(tag_1, lt(calldatasize, 0x04))\n      shr(0xe0, calldataload(0x00))\n      dup1\n      0x098de820\n      eq\n      tag_2\n      jumpi\n      dup1\n      0x0d8e6e2c\n      eq\n      tag_3\n      jumpi\n      dup1\n      0x98d5fdca\n      eq\n      tag_4\n      jumpi\n      dup1\n      0xb60d4288\n      eq\n      tag_5\n      jumpi\n      dup1\n      0xf36089ec\n      eq\n      tag_6\n      jumpi\n    tag_1:\n      0x00\n      dup1\n      revert\n        /* \"contracts/FundMe.sol\":162:192  uint256 public minimumUsd = 50 */\n    tag_2:\n      callvalue\n      dup1\n      iszero\n      tag_7\n      jumpi\n      0x00\n      dup1\n      revert\n    tag_7:\n      pop\n      tag_8\n      tag_9\n      jump\t// in\n    tag_8:\n      mload(0x40)\n      tag_10\n      swap2\n      swap1\n      tag_11\n      jump\t// in\n    tag_10:\n      mload(0x40)\n      dup1\n      swap2\n      sub\n      swap1\n      return\n        /* \"contracts/FundMe.sol\":662:865  function getVersion() public view returns(uint256){... */\n    tag_3:\n      callvalue\n      dup1\n      iszero\n      tag_12\n      jumpi\n      0x00\n      dup1\n      revert\n    tag_12:\n      pop\n      tag_13\n      tag_14\n      jump\t// in\n    tag_13:\n      mload(0x40)\n      tag_15\n      swap2\n      swap1\n      tag_11\n      jump\t// in\n    tag_15:\n      mload(0x40)\n      dup1\n      swap2\n      sub\n      swap1\n      return\n        /* \"contracts/FundMe.sol\":325:644  function getPrice () public view returns (int256) {... */\n    tag_4:\n      callvalue\n      dup1\n      iszero\n      tag_16\n      jumpi\n      0x00\n      dup1\n      revert\n    tag_16:\n      pop\n      tag_17\n      tag_18\n      jump\t// in\n    tag_17:\n      mload(0x40)\n      tag_19\n      swap2\n      swap1\n      tag_20\n      jump\t// in\n    tag_19:\n      mload(0x40)\n      dup1\n      swap2\n      sub\n      swap1\n      return\n        /* \"contracts/FundMe.sol\":201:317  function fund() public payable{... */\n    tag_5:\n      tag_21\n      tag_22\n      jump\t// in\n    tag_21:\n      stop\n        /* \"contracts/FundMe.sol\":873:909  function getConversionRate()public{} */\n    tag_6:\n      callvalue\n      dup1\n      iszero\n      tag_23\n      jumpi\n      0x00\n      dup1\n      revert\n    tag_23:\n      pop\n      tag_24\n      tag_25\n      jump\t// in\n    tag_24:\n      stop\n        /* \"contracts/FundMe.sol\":162:192  uint256 public minimumUsd = 50 */\n    tag_9:\n      sload(0x00)\n      dup2\n      jump\t// out\n        /* \"contracts/FundMe.sol\":662:865  function getVersion() public view returns(uint256){... */\n    tag_14:\n        /* \"contracts/FundMe.sol\":704:711  uint256 */\n      0x00\n        /* \"contracts/FundMe.sol\":723:753  AggregatorV3Interface dataFeed */\n      dup1\n        /* \"contracts/FundMe.sol\":778:820  0x8A753747A1Fa494EC906cE90E9f37563A8AF630e */\n      0x8a753747a1fa494ec906ce90e9f37563a8af630e\n        /* \"contracts/FundMe.sol\":723:821  AggregatorV3Interface dataFeed = AggregatorV3Interface(0x8A753747A1Fa494EC906cE90E9f37563A8AF630e) */\n      swap1\n      pop\n        /* \"contracts/FundMe.sol\":839:847  dataFeed */\n      dup1\n        /* \"contracts/FundMe.sol\":839:855  dataFeed.version */\n      0xffffffffffffffffffffffffffffffffffffffff\n      and\n      0x54fd4d50\n        /* \"contracts/FundMe.sol\":839:857  dataFeed.version() */\n      mload(0x40)\n      dup2\n      0xffffffff\n      and\n      0xe0\n      shl\n      dup2\n      mstore\n      0x04\n      add\n      0x20\n      mload(0x40)\n      dup1\n      dup4\n      sub\n      dup2\n      dup7\n      dup1\n      extcodesize\n      iszero\n      dup1\n      iszero\n      tag_27\n      jumpi\n      0x00\n      dup1\n      revert\n    tag_27:\n      pop\n      gas\n      staticcall\n      iszero\n      dup1\n      iszero\n      tag_29\n      jumpi\n      returndatasize\n      0x00\n      dup1\n      returndatacopy\n      revert(0x00, returndatasize)\n    tag_29:\n      pop\n      pop\n      pop\n      pop\n      mload(0x40)\n      returndatasize\n      not(0x1f)\n      0x1f\n      dup3\n      add\n      and\n      dup3\n      add\n      dup1\n      0x40\n      mstore\n      pop\n      dup2\n      add\n      swap1\n      tag_30\n      swap2\n      swap1\n      tag_31\n      jump\t// in\n    tag_30:\n        /* \"contracts/FundMe.sol\":832:857  return dataFeed.version() */\n      swap2\n      pop\n      pop\n        /* \"contracts/FundMe.sol\":662:865  function getVersion() public view returns(uint256){... */\n      swap1\n      jump\t// out\n        /* \"contracts/FundMe.sol\":325:644  function getPrice () public view returns (int256) {... */\n    tag_18:\n        /* \"contracts/FundMe.sol\":367:373  int256 */\n      0x00\n        /* \"contracts/FundMe.sol\":450:480  AggregatorV3Interface dataFeed */\n      dup1\n        /* \"contracts/FundMe.sol\":505:547  0x8A753747A1Fa494EC906cE90E9f37563A8AF630e */\n      0x8a753747a1fa494ec906ce90e9f37563a8af630e\n        /* \"contracts/FundMe.sol\":450:548  AggregatorV3Interface dataFeed = AggregatorV3Interface(0x8A753747A1Fa494EC906cE90E9f37563A8AF630e) */\n      swap1\n      pop\n        /* \"contracts/FundMe.sol\":561:573  int256 price */\n      0x00\n        /* \"contracts/FundMe.sol\":580:588  dataFeed */\n      dup2\n        /* \"contracts/FundMe.sol\":580:604  dataFeed.latestRoundData */\n      0xffffffffffffffffffffffffffffffffffffffff\n      and\n      0xfeaf968c\n        /* \"contracts/FundMe.sol\":580:606  dataFeed.latestRoundData() */\n      mload(0x40)\n      dup2\n      0xffffffff\n      and\n      0xe0\n      shl\n      dup2\n      mstore\n      0x04\n      add\n      0xa0\n      mload(0x40)\n      dup1\n      dup4\n      sub\n      dup2\n      dup7\n      dup1\n      extcodesize\n      iszero\n      dup1\n      iszero\n      tag_33\n      jumpi\n      0x00\n      dup1\n      revert\n    tag_33:\n      pop\n      gas\n      staticcall\n      iszero\n      dup1\n      iszero\n      tag_35\n      jumpi\n      returndatasize\n      0x00\n      dup1\n      returndatacopy\n      revert(0x00, returndatasize)\n    tag_35:\n      pop\n      pop\n      pop\n      pop\n      mload(0x40)\n      returndatasize\n      not(0x1f)\n      0x1f\n      dup3\n      add\n      and\n      dup3\n      add\n      dup1\n      0x40\n      mstore\n      pop\n      dup2\n      add\n      swap1\n      tag_36\n      swap2\n      swap1\n      tag_37\n      jump\t// in\n    tag_36:\n        /* \"contracts/FundMe.sol\":559:606  (,int256 price,,,) = dataFeed.latestRoundData() */\n      pop\n      pop\n      pop\n      swap2\n      pop\n      pop\n        /* \"contracts/FundMe.sol\":632:636  1e10 */\n      0x02540be400\n        /* \"contracts/FundMe.sol\":624:629  price */\n      dup2\n        /* \"contracts/FundMe.sol\":624:636  price * 1e10 */\n      tag_38\n      swap2\n      swap1\n      tag_39\n      jump\t// in\n    tag_38:\n        /* \"contracts/FundMe.sol\":617:636  return price * 1e10 */\n      swap3\n      pop\n      pop\n      pop\n        /* \"contracts/FundMe.sol\":325:644  function getPrice () public view returns (int256) {... */\n      swap1\n      jump\t// out\n        /* \"contracts/FundMe.sol\":201:317  function fund() public payable{... */\n    tag_22:\n        /* \"contracts/FundMe.sol\":263:273  minimumUsd */\n      sload(0x00)\n        /* \"contracts/FundMe.sol\":250:259  msg.value */\n      callvalue\n        /* \"contracts/FundMe.sol\":250:273  msg.value >= minimumUsd */\n      lt\n      iszero\n        /* \"contracts/FundMe.sol\":242:295  require(msg.value >= minimumUsd , \"not enough sent!\") */\n      tag_41\n      jumpi\n      mload(0x40)\n      0x08c379a000000000000000000000000000000000000000000000000000000000\n      dup2\n      mstore\n      0x04\n      add\n      tag_42\n      swap1\n      tag_43\n      jump\t// in\n    tag_42:\n      mload(0x40)\n      dup1\n      swap2\n      sub\n      swap1\n      revert\n    tag_41:\n        /* \"contracts/FundMe.sol\":201:317  function fund() public payable{... */\n      jump\t// out\n        /* \"contracts/FundMe.sol\":873:909  function getConversionRate()public{} */\n    tag_25:\n      jump\t// out\n        /* \"#utility.yul\":7:84   */\n    tag_45:\n        /* \"#utility.yul\":44:51   */\n      0x00\n        /* \"#utility.yul\":73:78   */\n      dup2\n        /* \"#utility.yul\":62:78   */\n      swap1\n      pop\n        /* \"#utility.yul\":7:84   */\n      swap2\n      swap1\n      pop\n      jump\t// out\n        /* \"#utility.yul\":90:208   */\n    tag_46:\n        /* \"#utility.yul\":177:201   */\n      tag_66\n        /* \"#utility.yul\":195:200   */\n      dup2\n        /* \"#utility.yul\":177:201   */\n      tag_45\n      jump\t// in\n    tag_66:\n        /* \"#utility.yul\":172:175   */\n      dup3\n        /* \"#utility.yul\":165:202   */\n      mstore\n        /* \"#utility.yul\":90:208   */\n      pop\n      pop\n      jump\t// out\n        /* \"#utility.yul\":214:436   */\n    tag_11:\n        /* \"#utility.yul\":307:311   */\n      0x00\n        /* \"#utility.yul\":345:347   */\n      0x20\n        /* \"#utility.yul\":334:343   */\n      dup3\n        /* \"#utility.yul\":330:348   */\n      add\n        /* \"#utility.yul\":322:348   */\n      swap1\n      pop\n        /* \"#utility.yul\":358:429   */\n      tag_68\n        /* \"#utility.yul\":426:427   */\n      0x00\n        /* \"#utility.yul\":415:424   */\n      dup4\n        /* \"#utility.yul\":411:428   */\n      add\n        /* \"#utility.yul\":402:408   */\n      dup5\n        /* \"#utility.yul\":358:429   */\n      tag_46\n      jump\t// in\n    tag_68:\n        /* \"#utility.yul\":214:436   */\n      swap3\n      swap2\n      pop\n      pop\n      jump\t// out\n        /* \"#utility.yul\":442:518   */\n    tag_47:\n        /* \"#utility.yul\":478:485   */\n      0x00\n        /* \"#utility.yul\":507:512   */\n      dup2\n        /* \"#utility.yul\":496:512   */\n      swap1\n      pop\n        /* \"#utility.yul\":442:518   */\n      swap2\n      swap1\n      pop\n      jump\t// out\n        /* \"#utility.yul\":524:639   */\n    tag_48:\n        /* \"#utility.yul\":609:632   */\n      tag_71\n        /* \"#utility.yul\":626:631   */\n      dup2\n        /* \"#utility.yul\":609:632   */\n      tag_47\n      jump\t// in\n    tag_71:\n        /* \"#utility.yul\":604:607   */\n      dup3\n        /* \"#utility.yul\":597:633   */\n      mstore\n        /* \"#utility.yul\":524:639   */\n      pop\n      pop\n      jump\t// out\n        /* \"#utility.yul\":645:863   */\n    tag_20:\n        /* \"#utility.yul\":736:740   */\n      0x00\n        /* \"#utility.yul\":774:776   */\n      0x20\n        /* \"#utility.yul\":763:772   */\n      dup3\n        /* \"#utility.yul\":759:777   */\n      add\n        /* \"#utility.yul\":751:777   */\n      swap1\n      pop\n        /* \"#utility.yul\":787:856   */\n      tag_73\n        /* \"#utility.yul\":853:854   */\n      0x00\n        /* \"#utility.yul\":842:851   */\n      dup4\n        /* \"#utility.yul\":838:855   */\n      add\n        /* \"#utility.yul\":829:835   */\n      dup5\n        /* \"#utility.yul\":787:856   */\n      tag_48\n      jump\t// in\n    tag_73:\n        /* \"#utility.yul\":645:863   */\n      swap3\n      swap2\n      pop\n      pop\n      jump\t// out\n        /* \"#utility.yul\":950:1067   */\n    tag_50:\n        /* \"#utility.yul\":1059:1060   */\n      0x00\n        /* \"#utility.yul\":1056:1057   */\n      dup1\n        /* \"#utility.yul\":1049:1061   */\n      revert\n        /* \"#utility.yul\":1196:1318   */\n    tag_52:\n        /* \"#utility.yul\":1269:1293   */\n      tag_78\n        /* \"#utility.yul\":1287:1292   */\n      dup2\n        /* \"#utility.yul\":1269:1293   */\n      tag_45\n      jump\t// in\n    tag_78:\n        /* \"#utility.yul\":1262:1267   */\n      dup2\n        /* \"#utility.yul\":1259:1294   */\n      eq\n        /* \"#utility.yul\":1249:1312   */\n      tag_79\n      jumpi\n        /* \"#utility.yul\":1308:1309   */\n      0x00\n        /* \"#utility.yul\":1305:1306   */\n      dup1\n        /* \"#utility.yul\":1298:1310   */\n      revert\n        /* \"#utility.yul\":1249:1312   */\n    tag_79:\n        /* \"#utility.yul\":1196:1318   */\n      pop\n      jump\t// out\n        /* \"#utility.yul\":1324:1467   */\n    tag_53:\n        /* \"#utility.yul\":1381:1386   */\n      0x00\n        /* \"#utility.yul\":1412:1418   */\n      dup2\n        /* \"#utility.yul\":1406:1419   */\n      mload\n        /* \"#utility.yul\":1397:1419   */\n      swap1\n      pop\n        /* \"#utility.yul\":1428:1461   */\n      tag_81\n        /* \"#utility.yul\":1455:1460   */\n      dup2\n        /* \"#utility.yul\":1428:1461   */\n      tag_52\n      jump\t// in\n    tag_81:\n        /* \"#utility.yul\":1324:1467   */\n      swap3\n      swap2\n      pop\n      pop\n      jump\t// out\n        /* \"#utility.yul\":1473:1824   */\n    tag_31:\n        /* \"#utility.yul\":1543:1549   */\n      0x00\n        /* \"#utility.yul\":1592:1594   */\n      0x20\n        /* \"#utility.yul\":1580:1589   */\n      dup3\n        /* \"#utility.yul\":1571:1578   */\n      dup5\n        /* \"#utility.yul\":1567:1590   */\n      sub\n        /* \"#utility.yul\":1563:1595   */\n      slt\n        /* \"#utility.yul\":1560:1679   */\n      iszero\n      tag_83\n      jumpi\n        /* \"#utility.yul\":1598:1677   */\n      tag_84\n      tag_50\n      jump\t// in\n    tag_84:\n        /* \"#utility.yul\":1560:1679   */\n    tag_83:\n        /* \"#utility.yul\":1718:1719   */\n      0x00\n        /* \"#utility.yul\":1743:1807   */\n      tag_85\n        /* \"#utility.yul\":1799:1806   */\n      dup5\n        /* \"#utility.yul\":1790:1796   */\n      dup3\n        /* \"#utility.yul\":1779:1788   */\n      dup6\n        /* \"#utility.yul\":1775:1797   */\n      add\n        /* \"#utility.yul\":1743:1807   */\n      tag_53\n      jump\t// in\n    tag_85:\n        /* \"#utility.yul\":1733:1807   */\n      swap2\n      pop\n        /* \"#utility.yul\":1689:1817   */\n      pop\n        /* \"#utility.yul\":1473:1824   */\n      swap3\n      swap2\n      pop\n      pop\n      jump\t// out\n        /* \"#utility.yul\":1830:1935   */\n    tag_54:\n        /* \"#utility.yul\":1866:1873   */\n      0x00\n        /* \"#utility.yul\":1906:1928   */\n      0xffffffffffffffffffff\n        /* \"#utility.yul\":1899:1904   */\n      dup3\n        /* \"#utility.yul\":1895:1929   */\n      and\n        /* \"#utility.yul\":1884:1929   */\n      swap1\n      pop\n        /* \"#utility.yul\":1830:1935   */\n      swap2\n      swap1\n      pop\n      jump\t// out\n        /* \"#utility.yul\":1941:2061   */\n    tag_55:\n        /* \"#utility.yul\":2013:2036   */\n      tag_88\n        /* \"#utility.yul\":2030:2035   */\n      dup2\n        /* \"#utility.yul\":2013:2036   */\n      tag_54\n      jump\t// in\n    tag_88:\n        /* \"#utility.yul\":2006:2011   */\n      dup2\n        /* \"#utility.yul\":2003:2037   */\n      eq\n        /* \"#utility.yul\":1993:2055   */\n      tag_89\n      jumpi\n        /* \"#utility.yul\":2051:2052   */\n      0x00\n        /* \"#utility.yul\":2048:2049   */\n      dup1\n        /* \"#utility.yul\":2041:2053   */\n      revert\n        /* \"#utility.yul\":1993:2055   */\n    tag_89:\n        /* \"#utility.yul\":1941:2061   */\n      pop\n      jump\t// out\n        /* \"#utility.yul\":2067:2208   */\n    tag_56:\n        /* \"#utility.yul\":2123:2128   */\n      0x00\n        /* \"#utility.yul\":2154:2160   */\n      dup2\n        /* \"#utility.yul\":2148:2161   */\n      mload\n        /* \"#utility.yul\":2139:2161   */\n      swap1\n      pop\n        /* \"#utility.yul\":2170:2202   */\n      tag_91\n        /* \"#utility.yul\":2196:2201   */\n      dup2\n        /* \"#utility.yul\":2170:2202   */\n      tag_55\n      jump\t// in\n    tag_91:\n        /* \"#utility.yul\":2067:2208   */\n      swap3\n      swap2\n      pop\n      pop\n      jump\t// out\n        /* \"#utility.yul\":2214:2334   */\n    tag_57:\n        /* \"#utility.yul\":2286:2309   */\n      tag_93\n        /* \"#utility.yul\":2303:2308   */\n      dup2\n        /* \"#utility.yul\":2286:2309   */\n      tag_47\n      jump\t// in\n    tag_93:\n        /* \"#utility.yul\":2279:2284   */\n      dup2\n        /* \"#utility.yul\":2276:2310   */\n      eq\n        /* \"#utility.yul\":2266:2328   */\n      tag_94\n      jumpi\n        /* \"#utility.yul\":2324:2325   */\n      0x00\n        /* \"#utility.yul\":2321:2322   */\n      dup1\n        /* \"#utility.yul\":2314:2326   */\n      revert\n        /* \"#utility.yul\":2266:2328   */\n    tag_94:\n        /* \"#utility.yul\":2214:2334   */\n      pop\n      jump\t// out\n        /* \"#utility.yul\":2340:2481   */\n    tag_58:\n        /* \"#utility.yul\":2396:2401   */\n      0x00\n        /* \"#utility.yul\":2427:2433   */\n      dup2\n        /* \"#utility.yul\":2421:2434   */\n      mload\n        /* \"#utility.yul\":2412:2434   */\n      swap1\n      pop\n        /* \"#utility.yul\":2443:2475   */\n      tag_96\n        /* \"#utility.yul\":2469:2474   */\n      dup2\n        /* \"#utility.yul\":2443:2475   */\n      tag_57\n      jump\t// in\n    tag_96:\n        /* \"#utility.yul\":2340:2481   */\n      swap3\n      swap2\n      pop\n      pop\n      jump\t// out\n        /* \"#utility.yul\":2487:3458   */\n    tag_37:\n        /* \"#utility.yul\":2590:2596   */\n      0x00\n        /* \"#utility.yul\":2598:2604   */\n      dup1\n        /* \"#utility.yul\":2606:2612   */\n      0x00\n        /* \"#utility.yul\":2614:2620   */\n      dup1\n        /* \"#utility.yul\":2622:2628   */\n      0x00\n        /* \"#utility.yul\":2671:2674   */\n      0xa0\n        /* \"#utility.yul\":2659:2668   */\n      dup7\n        /* \"#utility.yul\":2650:2657   */\n      dup9\n        /* \"#utility.yul\":2646:2669   */\n      sub\n        /* \"#utility.yul\":2642:2675   */\n      slt\n        /* \"#utility.yul\":2639:2759   */\n      iszero\n      tag_98\n      jumpi\n        /* \"#utility.yul\":2678:2757   */\n      tag_99\n      tag_50\n      jump\t// in\n    tag_99:\n        /* \"#utility.yul\":2639:2759   */\n    tag_98:\n        /* \"#utility.yul\":2798:2799   */\n      0x00\n        /* \"#utility.yul\":2823:2886   */\n      tag_100\n        /* \"#utility.yul\":2878:2885   */\n      dup9\n        /* \"#utility.yul\":2869:2875   */\n      dup3\n        /* \"#utility.yul\":2858:2867   */\n      dup10\n        /* \"#utility.yul\":2854:2876   */\n      add\n        /* \"#utility.yul\":2823:2886   */\n      tag_56\n      jump\t// in\n    tag_100:\n        /* \"#utility.yul\":2813:2886   */\n      swap6\n      pop\n        /* \"#utility.yul\":2769:2896   */\n      pop\n        /* \"#utility.yul\":2935:2937   */\n      0x20\n        /* \"#utility.yul\":2961:3024   */\n      tag_101\n        /* \"#utility.yul\":3016:3023   */\n      dup9\n        /* \"#utility.yul\":3007:3013   */\n      dup3\n        /* \"#utility.yul\":2996:3005   */\n      dup10\n        /* \"#utility.yul\":2992:3014   */\n      add\n        /* \"#utility.yul\":2961:3024   */\n      tag_58\n      jump\t// in\n    tag_101:\n        /* \"#utility.yul\":2951:3024   */\n      swap5\n      pop\n        /* \"#utility.yul\":2906:3034   */\n      pop\n        /* \"#utility.yul\":3073:3075   */\n      0x40\n        /* \"#utility.yul\":3099:3163   */\n      tag_102\n        /* \"#utility.yul\":3155:3162   */\n      dup9\n        /* \"#utility.yul\":3146:3152   */\n      dup3\n        /* \"#utility.yul\":3135:3144   */\n      dup10\n        /* \"#utility.yul\":3131:3153   */\n      add\n        /* \"#utility.yul\":3099:3163   */\n      tag_53\n      jump\t// in\n    tag_102:\n        /* \"#utility.yul\":3089:3163   */\n      swap4\n      pop\n        /* \"#utility.yul\":3044:3173   */\n      pop\n        /* \"#utility.yul\":3212:3214   */\n      0x60\n        /* \"#utility.yul\":3238:3302   */\n      tag_103\n        /* \"#utility.yul\":3294:3301   */\n      dup9\n        /* \"#utility.yul\":3285:3291   */\n      dup3\n        /* \"#utility.yul\":3274:3283   */\n      dup10\n        /* \"#utility.yul\":3270:3292   */\n      add\n        /* \"#utility.yul\":3238:3302   */\n      tag_53\n      jump\t// in\n    tag_103:\n        /* \"#utility.yul\":3228:3302   */\n      swap3\n      pop\n        /* \"#utility.yul\":3183:3312   */\n      pop\n        /* \"#utility.yul\":3351:3354   */\n      0x80\n        /* \"#utility.yul\":3378:3441   */\n      tag_104\n        /* \"#utility.yul\":3433:3440   */\n      dup9\n        /* \"#utility.yul\":3424:3430   */\n      dup3\n        /* \"#utility.yul\":3413:3422   */\n      dup10\n        /* \"#utility.yul\":3409:3431   */\n      add\n        /* \"#utility.yul\":3378:3441   */\n      tag_56\n      jump\t// in\n    tag_104:\n        /* \"#utility.yul\":3368:3441   */\n      swap2\n      pop\n        /* \"#utility.yul\":3322:3451   */\n      pop\n        /* \"#utility.yul\":2487:3458   */\n      swap3\n      swap6\n      pop\n      swap3\n      swap6\n      swap1\n      swap4\n      pop\n      jump\t// out\n        /* \"#utility.yul\":3464:3644   */\n    tag_59:\n        /* \"#utility.yul\":3512:3589   */\n      0x4e487b7100000000000000000000000000000000000000000000000000000000\n        /* \"#utility.yul\":3509:3510   */\n      0x00\n        /* \"#utility.yul\":3502:3590   */\n      mstore\n        /* \"#utility.yul\":3609:3613   */\n      0x11\n        /* \"#utility.yul\":3606:3607   */\n      0x04\n        /* \"#utility.yul\":3599:3614   */\n      mstore\n        /* \"#utility.yul\":3633:3637   */\n      0x24\n        /* \"#utility.yul\":3630:3631   */\n      0x00\n        /* \"#utility.yul\":3623:3638   */\n      revert\n        /* \"#utility.yul\":3650:4641   */\n    tag_39:\n        /* \"#utility.yul\":3689:3696   */\n      0x00\n        /* \"#utility.yul\":3712:3731   */\n      tag_107\n        /* \"#utility.yul\":3729:3730   */\n      dup3\n        /* \"#utility.yul\":3712:3731   */\n      tag_47\n      jump\t// in\n    tag_107:\n        /* \"#utility.yul\":3707:3731   */\n      swap2\n      pop\n        /* \"#utility.yul\":3745:3764   */\n      tag_108\n        /* \"#utility.yul\":3762:3763   */\n      dup4\n        /* \"#utility.yul\":3745:3764   */\n      tag_47\n      jump\t// in\n    tag_108:\n        /* \"#utility.yul\":3740:3764   */\n      swap3\n      pop\n        /* \"#utility.yul\":3946:3947   */\n      dup3\n        /* \"#utility.yul\":3878:3944   */\n      0x7fffffffffffffffffffffffffffffffffffffffffffffffffffffffffffffff\n        /* \"#utility.yul\":3874:3948   */\n      div\n        /* \"#utility.yul\":3871:3872   */\n      dup3\n        /* \"#utility.yul\":3868:3949   */\n      gt\n        /* \"#utility.yul\":3863:3864   */\n      0x00\n        /* \"#utility.yul\":3860:3861   */\n      dup5\n        /* \"#utility.yul\":3856:3865   */\n      sgt\n        /* \"#utility.yul\":3852:3853   */\n      0x00\n        /* \"#utility.yul\":3849:3850   */\n      dup5\n        /* \"#utility.yul\":3845:3854   */\n      sgt\n        /* \"#utility.yul\":3841:3866   */\n      and\n        /* \"#utility.yul\":3837:3950   */\n      and\n        /* \"#utility.yul\":3834:3973   */\n      iszero\n      tag_109\n      jumpi\n        /* \"#utility.yul\":3953:3971   */\n      tag_110\n      tag_59\n      jump\t// in\n    tag_110:\n        /* \"#utility.yul\":3834:3973   */\n    tag_109:\n        /* \"#utility.yul\":4157:4158   */\n      dup2\n        /* \"#utility.yul\":4089:4155   */\n      0x8000000000000000000000000000000000000000000000000000000000000000\n        /* \"#utility.yul\":4084:4159   */\n      sdiv\n        /* \"#utility.yul\":4081:4082   */\n      dup4\n        /* \"#utility.yul\":4077:4160   */\n      slt\n        /* \"#utility.yul\":4072:4073   */\n      0x00\n        /* \"#utility.yul\":4069:4070   */\n      dup5\n        /* \"#utility.yul\":4065:4074   */\n      slt\n        /* \"#utility.yul\":4061:4062   */\n      0x00\n        /* \"#utility.yul\":4058:4059   */\n      dup5\n        /* \"#utility.yul\":4054:4063   */\n      sgt\n        /* \"#utility.yul\":4050:4075   */\n      and\n        /* \"#utility.yul\":4046:4161   */\n      and\n        /* \"#utility.yul\":4043:4184   */\n      iszero\n      tag_111\n      jumpi\n        /* \"#utility.yul\":4164:4182   */\n      tag_112\n      tag_59\n      jump\t// in\n    tag_112:\n        /* \"#utility.yul\":4043:4184   */\n    tag_111:\n        /* \"#utility.yul\":4368:4369   */\n      dup3\n        /* \"#utility.yul\":4300:4366   */\n      0x8000000000000000000000000000000000000000000000000000000000000000\n        /* \"#utility.yul\":4295:4370   */\n      sdiv\n        /* \"#utility.yul\":4292:4293   */\n      dup3\n        /* \"#utility.yul\":4288:4371   */\n      slt\n        /* \"#utility.yul\":4283:4284   */\n      0x00\n        /* \"#utility.yul\":4280:4281   */\n      dup5\n        /* \"#utility.yul\":4276:4285   */\n      sgt\n        /* \"#utility.yul\":4272:4273   */\n      0x00\n        /* \"#utility.yul\":4269:4270   */\n      dup5\n        /* \"#utility.yul\":4265:4274   */\n      slt\n        /* \"#utility.yul\":4261:4286   */\n      and\n        /* \"#utility.yul\":4257:4372   */\n      and\n        /* \"#utility.yul\":4254:4395   */\n      iszero\n      tag_113\n      jumpi\n        /* \"#utility.yul\":4375:4393   */\n      tag_114\n      tag_59\n      jump\t// in\n    tag_114:\n        /* \"#utility.yul\":4254:4395   */\n    tag_113:\n        /* \"#utility.yul\":4578:4579   */\n      dup3\n        /* \"#utility.yul\":4510:4576   */\n      0x7fffffffffffffffffffffffffffffffffffffffffffffffffffffffffffffff\n        /* \"#utility.yul\":4505:4580   */\n      sdiv\n        /* \"#utility.yul\":4502:4503   */\n      dup3\n        /* \"#utility.yul\":4498:4581   */\n      slt\n        /* \"#utility.yul\":4493:4494   */\n      0x00\n        /* \"#utility.yul\":4490:4491   */\n      dup5\n        /* \"#utility.yul\":4486:4495   */\n      slt\n        /* \"#utility.yul\":4482:4483   */\n      0x00\n        /* \"#utility.yul\":4479:4480   */\n      dup5\n        /* \"#utility.yul\":4475:4484   */\n      slt\n        /* \"#utility.yul\":4471:4496   */\n      and\n        /* \"#utility.yul\":4467:4582   */\n      and\n        /* \"#utility.yul\":4464:4605   */\n      iszero\n      tag_115\n      jumpi\n        /* \"#utility.yul\":4585:4603   */\n      tag_116\n      tag_59\n      jump\t// in\n    tag_116:\n        /* \"#utility.yul\":4464:4605   */\n    tag_115:\n        /* \"#utility.yul\":4633:4634   */\n      dup3\n        /* \"#utility.yul\":4630:4631   */\n      dup3\n        /* \"#utility.yul\":4626:4635   */\n      mul\n        /* \"#utility.yul\":4615:4635   */\n      swap1\n      pop\n        /* \"#utility.yul\":3650:4641   */\n      swap3\n      swap2\n      pop\n      pop\n      jump\t// out\n        /* \"#utility.yul\":4647:4816   */\n    tag_60:\n        /* \"#utility.yul\":4731:4742   */\n      0x00\n        /* \"#utility.yul\":4765:4771   */\n      dup3\n        /* \"#utility.yul\":4760:4763   */\n      dup3\n        /* \"#utility.yul\":4753:4772   */\n      mstore\n        /* \"#utility.yul\":4805:4809   */\n      0x20\n        /* \"#utility.yul\":4800:4803   */\n      dup3\n        /* \"#utility.yul\":4796:4810   */\n      add\n        /* \"#utility.yul\":4781:4810   */\n      swap1\n      pop\n        /* \"#utility.yul\":4647:4816   */\n      swap3\n      swap2\n      pop\n      pop\n      jump\t// out\n        /* \"#utility.yul\":4822:4988   */\n    tag_61:\n        /* \"#utility.yul\":4962:4980   */\n      0x6e6f7420656e6f7567682073656e742100000000000000000000000000000000\n        /* \"#utility.yul\":4958:4959   */\n      0x00\n        /* \"#utility.yul\":4950:4956   */\n      dup3\n        /* \"#utility.yul\":4946:4960   */\n      add\n        /* \"#utility.yul\":4939:4981   */\n      mstore\n        /* \"#utility.yul\":4822:4988   */\n      pop\n      jump\t// out\n        /* \"#utility.yul\":4994:5360   */\n    tag_62:\n        /* \"#utility.yul\":5136:5139   */\n      0x00\n        /* \"#utility.yul\":5157:5224   */\n      tag_120\n        /* \"#utility.yul\":5221:5223   */\n      0x10\n        /* \"#utility.yul\":5216:5219   */\n      dup4\n        /* \"#utility.yul\":5157:5224   */\n      tag_60\n      jump\t// in\n    tag_120:\n        /* \"#utility.yul\":5150:5224   */\n      swap2\n      pop\n        /* \"#utility.yul\":5233:5326   */\n      tag_121\n        /* \"#utility.yul\":5322:5325   */\n      dup3\n        /* \"#utility.yul\":5233:5326   */\n      tag_61\n      jump\t// in\n    tag_121:\n        /* \"#utility.yul\":5351:5353   */\n      0x20\n        /* \"#utility.yul\":5346:5349   */\n      dup3\n        /* \"#utility.yul\":5342:5354   */\n      add\n        /* \"#utility.yul\":5335:5354   */\n      swap1\n      pop\n        /* \"#utility.yul\":4994:5360   */\n      swap2\n      swap1\n      pop\n      jump\t// out\n        /* \"#utility.yul\":5366:5785   */\n    tag_43:\n        /* \"#utility.yul\":5532:5536   */\n      0x00\n        /* \"#utility.yul\":5570:5572   */\n      0x20\n        /* \"#utility.yul\":5559:5568   */\n      dup3\n        /* \"#utility.yul\":5555:5573   */\n      add\n        /* \"#utility.yul\":5547:5573   */\n      swap1\n      pop\n        /* \"#utility.yul\":5619:5628   */\n      dup2\n        /* \"#utility.yul\":5613:5617   */\n      dup2\n        /* \"#utility.yul\":5609:5629   */\n      sub\n        /* \"#utility.yul\":5605:5606   */\n      0x00\n        /* \"#utility.yul\":5594:5603   */\n      dup4\n        /* \"#utility.yul\":5590:5607   */\n      add\n        /* \"#utility.yul\":5583:5630   */\n      mstore\n        /* \"#utility.yul\":5647:5778   */\n      tag_123\n        /* \"#utility.yul\":5773:5777   */\n      dup2\n        /* \"#utility.yul\":5647:5778   */\n      tag_62\n      jump\t// in\n    tag_123:\n        /* \"#utility.yul\":5639:5778   */\n      swap1\n      pop\n        /* \"#utility.yul\":5366:5785   */\n      swap2\n      swap1\n      pop\n      jump\t// out\n\n    auxdata: 0xa26469706673582212206d350c8a0d50096ca327244fc221a9903b6a958494ebde89896ade268c5cfd5064736f6c63430008080033\n}\n",
				"bytecode": {
					"linkReferences": {},
					"object": "6080604052603260005534801561001557600080fd5b5061063e806100256000396000f3fe60806040526004361061004a5760003560e01c8063098de8201461004f5780630d8e6e2c1461007a57806398d5fdca146100a5578063b60d4288146100d0578063f36089ec146100da575b600080fd5b34801561005b57600080fd5b506100646100f1565b60405161007191906102af565b60405180910390f35b34801561008657600080fd5b5061008f6100f7565b60405161009c91906102af565b60405180910390f35b3480156100b157600080fd5b506100ba610195565b6040516100c791906102e3565b60405180910390f35b6100d861024d565b005b3480156100e657600080fd5b506100ef610294565b005b60005481565b600080738a753747a1fa494ec906ce90e9f37563a8af630e90508073ffffffffffffffffffffffffffffffffffffffff166354fd4d506040518163ffffffff1660e01b815260040160206040518083038186803b15801561015757600080fd5b505afa15801561016b573d6000803e3d6000fd5b505050506040513d601f19601f8201168201806040525081019061018f919061032f565b91505090565b600080738a753747a1fa494ec906ce90e9f37563a8af630e905060008173ffffffffffffffffffffffffffffffffffffffff1663feaf968c6040518163ffffffff1660e01b815260040160a06040518083038186803b1580156101f757600080fd5b505afa15801561020b573d6000803e3d6000fd5b505050506040513d601f19601f8201168201806040525081019061022f91906103ca565b5050509150506402540be400816102469190610474565b9250505090565b600054341015610292576040517f08c379a0000000000000000000000000000000000000000000000000000000008152600401610289906105e8565b60405180910390fd5b565b565b6000819050919050565b6102a981610296565b82525050565b60006020820190506102c460008301846102a0565b92915050565b6000819050919050565b6102dd816102ca565b82525050565b60006020820190506102f860008301846102d4565b92915050565b600080fd5b61030c81610296565b811461031757600080fd5b50565b60008151905061032981610303565b92915050565b600060208284031215610345576103446102fe565b5b60006103538482850161031a565b91505092915050565b600069ffffffffffffffffffff82169050919050565b61037b8161035c565b811461038657600080fd5b50565b60008151905061039881610372565b92915050565b6103a7816102ca565b81146103b257600080fd5b50565b6000815190506103c48161039e565b92915050565b600080600080600060a086880312156103e6576103e56102fe565b5b60006103f488828901610389565b9550506020610405888289016103b5565b94505060406104168882890161031a565b93505060606104278882890161031a565b925050608061043888828901610389565b9150509295509295909350565b7f4e487b7100000000000000000000000000000000000000000000000000000000600052601160045260246000fd5b600061047f826102ca565b915061048a836102ca565b9250827f7fffffffffffffffffffffffffffffffffffffffffffffffffffffffffffffff04821160008413600084131616156104c9576104c8610445565b5b817f8000000000000000000000000000000000000000000000000000000000000000058312600084126000841316161561050657610505610445565b5b827f8000000000000000000000000000000000000000000000000000000000000000058212600084136000841216161561054357610542610445565b5b827f7fffffffffffffffffffffffffffffffffffffffffffffffffffffffffffffff05821260008412600084121616156105805761057f610445565b5b828202905092915050565b600082825260208201905092915050565b7f6e6f7420656e6f7567682073656e742100000000000000000000000000000000600082015250565b60006105d260108361058b565b91506105dd8261059c565b602082019050919050565b60006020820190508181036000830152610601816105c5565b905091905056fea26469706673582212206d350c8a0d50096ca327244fc221a9903b6a958494ebde89896ade268c5cfd5064736f6c63430008080033",
					"opcodes": "PUSH1 0x80 PUSH1 0x40 MSTORE PUSH1 0x32 PUSH1 0x0 SSTORE CALLVALUE DUP1 ISZERO PUSH2 0x15 JUMPI PUSH1 0x0 DUP1 REVERT JUMPDEST POP PUSH2 0x63E DUP1 PUSH2 0x25 PUSH1 0x0 CODECOPY PUSH1 0x0 RETURN INVALID PUSH1 0x80 PUSH1 0x40 MSTORE PUSH1 0x4 CALLDATASIZE LT PUSH2 0x4A JUMPI PUSH1 0x0 CALLDATALOAD PUSH1 0xE0 SHR DUP1 PUSH4 0x98DE820 EQ PUSH2 0x4F JUMPI DUP1 PUSH4 0xD8E6E2C EQ PUSH2 0x7A JUMPI DUP1 PUSH4 0x98D5FDCA EQ PUSH2 0xA5 JUMPI DUP1 PUSH4 0xB60D4288 EQ PUSH2 0xD0 JUMPI DUP1 PUSH4 0xF36089EC EQ PUSH2 0xDA JUMPI JUMPDEST PUSH1 0x0 DUP1 REVERT JUMPDEST CALLVALUE DUP1 ISZERO PUSH2 0x5B JUMPI PUSH1 0x0 DUP1 REVERT JUMPDEST POP PUSH2 0x64 PUSH2 0xF1 JUMP JUMPDEST PUSH1 0x40 MLOAD PUSH2 0x71 SWAP2 SWAP1 PUSH2 0x2AF JUMP JUMPDEST PUSH1 0x40 MLOAD DUP1 SWAP2 SUB SWAP1 RETURN JUMPDEST CALLVALUE DUP1 ISZERO PUSH2 0x86 JUMPI PUSH1 0x0 DUP1 REVERT JUMPDEST POP PUSH2 0x8F PUSH2 0xF7 JUMP JUMPDEST PUSH1 0x40 MLOAD PUSH2 0x9C SWAP2 SWAP1 PUSH2 0x2AF JUMP JUMPDEST PUSH1 0x40 MLOAD DUP1 SWAP2 SUB SWAP1 RETURN JUMPDEST CALLVALUE DUP1 ISZERO PUSH2 0xB1 JUMPI PUSH1 0x0 DUP1 REVERT JUMPDEST POP PUSH2 0xBA PUSH2 0x195 JUMP JUMPDEST PUSH1 0x40 MLOAD PUSH2 0xC7 SWAP2 SWAP1 PUSH2 0x2E3 JUMP JUMPDEST PUSH1 0x40 MLOAD DUP1 SWAP2 SUB SWAP1 RETURN JUMPDEST PUSH2 0xD8 PUSH2 0x24D JUMP JUMPDEST STOP JUMPDEST CALLVALUE DUP1 ISZERO PUSH2 0xE6 JUMPI PUSH1 0x0 DUP1 REVERT JUMPDEST POP PUSH2 0xEF PUSH2 0x294 JUMP JUMPDEST STOP JUMPDEST PUSH1 0x0 SLOAD DUP2 JUMP JUMPDEST PUSH1 0x0 DUP1 PUSH20 0x8A753747A1FA494EC906CE90E9F37563A8AF630E SWAP1 POP DUP1 PUSH20 0xFFFFFFFFFFFFFFFFFFFFFFFFFFFFFFFFFFFFFFFF AND PUSH4 0x54FD4D50 PUSH1 0x40 MLOAD DUP2 PUSH4 0xFFFFFFFF AND PUSH1 0xE0 SHL DUP2 MSTORE PUSH1 0x4 ADD PUSH1 0x20 PUSH1 0x40 MLOAD DUP1 DUP4 SUB DUP2 DUP7 DUP1 EXTCODESIZE ISZERO DUP1 ISZERO PUSH2 0x157 JUMPI PUSH1 0x0 DUP1 REVERT JUMPDEST POP GAS STATICCALL ISZERO DUP1 ISZERO PUSH2 0x16B JUMPI RETURNDATASIZE PUSH1 0x0 DUP1 RETURNDATACOPY RETURNDATASIZE PUSH1 0x0 REVERT JUMPDEST POP POP POP POP PUSH1 0x40 MLOAD RETURNDATASIZE PUSH1 0x1F NOT PUSH1 0x1F DUP3 ADD AND DUP3 ADD DUP1 PUSH1 0x40 MSTORE POP DUP2 ADD SWAP1 PUSH2 0x18F SWAP2 SWAP1 PUSH2 0x32F JUMP JUMPDEST SWAP2 POP POP SWAP1 JUMP JUMPDEST PUSH1 0x0 DUP1 PUSH20 0x8A753747A1FA494EC906CE90E9F37563A8AF630E SWAP1 POP PUSH1 0x0 DUP2 PUSH20 0xFFFFFFFFFFFFFFFFFFFFFFFFFFFFFFFFFFFFFFFF AND PUSH4 0xFEAF968C PUSH1 0x40 MLOAD DUP2 PUSH4 0xFFFFFFFF AND PUSH1 0xE0 SHL DUP2 MSTORE PUSH1 0x4 ADD PUSH1 0xA0 PUSH1 0x40 MLOAD DUP1 DUP4 SUB DUP2 DUP7 DUP1 EXTCODESIZE ISZERO DUP1 ISZERO PUSH2 0x1F7 JUMPI PUSH1 0x0 DUP1 REVERT JUMPDEST POP GAS STATICCALL ISZERO DUP1 ISZERO PUSH2 0x20B JUMPI RETURNDATASIZE PUSH1 0x0 DUP1 RETURNDATACOPY RETURNDATASIZE PUSH1 0x0 REVERT JUMPDEST POP POP POP POP PUSH1 0x40 MLOAD RETURNDATASIZE PUSH1 0x1F NOT PUSH1 0x1F DUP3 ADD AND DUP3 ADD DUP1 PUSH1 0x40 MSTORE POP DUP2 ADD SWAP1 PUSH2 0x22F SWAP2 SWAP1 PUSH2 0x3CA JUMP JUMPDEST POP POP POP SWAP2 POP POP PUSH5 0x2540BE400 DUP2 PUSH2 0x246 SWAP2 SWAP1 PUSH2 0x474 JUMP JUMPDEST SWAP3 POP POP POP SWAP1 JUMP JUMPDEST PUSH1 0x0 SLOAD CALLVALUE LT ISZERO PUSH2 0x292 JUMPI PUSH1 0x40 MLOAD PUSH32 0x8C379A000000000000000000000000000000000000000000000000000000000 DUP2 MSTORE PUSH1 0x4 ADD PUSH2 0x289 SWAP1 PUSH2 0x5E8 JUMP JUMPDEST PUSH1 0x40 MLOAD DUP1 SWAP2 SUB SWAP1 REVERT JUMPDEST JUMP JUMPDEST JUMP JUMPDEST PUSH1 0x0 DUP2 SWAP1 POP SWAP2 SWAP1 POP JUMP JUMPDEST PUSH2 0x2A9 DUP2 PUSH2 0x296 JUMP JUMPDEST DUP3 MSTORE POP POP JUMP JUMPDEST PUSH1 0x0 PUSH1 0x20 DUP3 ADD SWAP1 POP PUSH2 0x2C4 PUSH1 0x0 DUP4 ADD DUP5 PUSH2 0x2A0 JUMP JUMPDEST SWAP3 SWAP2 POP POP JUMP JUMPDEST PUSH1 0x0 DUP2 SWAP1 POP SWAP2 SWAP1 POP JUMP JUMPDEST PUSH2 0x2DD DUP2 PUSH2 0x2CA JUMP JUMPDEST DUP3 MSTORE POP POP JUMP JUMPDEST PUSH1 0x0 PUSH1 0x20 DUP3 ADD SWAP1 POP PUSH2 0x2F8 PUSH1 0x0 DUP4 ADD DUP5 PUSH2 0x2D4 JUMP JUMPDEST SWAP3 SWAP2 POP POP JUMP JUMPDEST PUSH1 0x0 DUP1 REVERT JUMPDEST PUSH2 0x30C DUP2 PUSH2 0x296 JUMP JUMPDEST DUP2 EQ PUSH2 0x317 JUMPI PUSH1 0x0 DUP1 REVERT JUMPDEST POP JUMP JUMPDEST PUSH1 0x0 DUP2 MLOAD SWAP1 POP PUSH2 0x329 DUP2 PUSH2 0x303 JUMP JUMPDEST SWAP3 SWAP2 POP POP JUMP JUMPDEST PUSH1 0x0 PUSH1 0x20 DUP3 DUP5 SUB SLT ISZERO PUSH2 0x345 JUMPI PUSH2 0x344 PUSH2 0x2FE JUMP JUMPDEST JUMPDEST PUSH1 0x0 PUSH2 0x353 DUP5 DUP3 DUP6 ADD PUSH2 0x31A JUMP JUMPDEST SWAP2 POP POP SWAP3 SWAP2 POP POP JUMP JUMPDEST PUSH1 0x0 PUSH10 0xFFFFFFFFFFFFFFFFFFFF DUP3 AND SWAP1 POP SWAP2 SWAP1 POP JUMP JUMPDEST PUSH2 0x37B DUP2 PUSH2 0x35C JUMP JUMPDEST DUP2 EQ PUSH2 0x386 JUMPI PUSH1 0x0 DUP1 REVERT JUMPDEST POP JUMP JUMPDEST PUSH1 0x0 DUP2 MLOAD SWAP1 POP PUSH2 0x398 DUP2 PUSH2 0x372 JUMP JUMPDEST SWAP3 SWAP2 POP POP JUMP JUMPDEST PUSH2 0x3A7 DUP2 PUSH2 0x2CA JUMP JUMPDEST DUP2 EQ PUSH2 0x3B2 JUMPI PUSH1 0x0 DUP1 REVERT JUMPDEST POP JUMP JUMPDEST PUSH1 0x0 DUP2 MLOAD SWAP1 POP PUSH2 0x3C4 DUP2 PUSH2 0x39E JUMP JUMPDEST SWAP3 SWAP2 POP POP JUMP JUMPDEST PUSH1 0x0 DUP1 PUSH1 0x0 DUP1 PUSH1 0x0 PUSH1 0xA0 DUP7 DUP9 SUB SLT ISZERO PUSH2 0x3E6 JUMPI PUSH2 0x3E5 PUSH2 0x2FE JUMP JUMPDEST JUMPDEST PUSH1 0x0 PUSH2 0x3F4 DUP9 DUP3 DUP10 ADD PUSH2 0x389 JUMP JUMPDEST SWAP6 POP POP PUSH1 0x20 PUSH2 0x405 DUP9 DUP3 DUP10 ADD PUSH2 0x3B5 JUMP JUMPDEST SWAP5 POP POP PUSH1 0x40 PUSH2 0x416 DUP9 DUP3 DUP10 ADD PUSH2 0x31A JUMP JUMPDEST SWAP4 POP POP PUSH1 0x60 PUSH2 0x427 DUP9 DUP3 DUP10 ADD PUSH2 0x31A JUMP JUMPDEST SWAP3 POP POP PUSH1 0x80 PUSH2 0x438 DUP9 DUP3 DUP10 ADD PUSH2 0x389 JUMP JUMPDEST SWAP2 POP POP SWAP3 SWAP6 POP SWAP3 SWAP6 SWAP1 SWAP4 POP JUMP JUMPDEST PUSH32 0x4E487B7100000000000000000000000000000000000000000000000000000000 PUSH1 0x0 MSTORE PUSH1 0x11 PUSH1 0x4 MSTORE PUSH1 0x24 PUSH1 0x0 REVERT JUMPDEST PUSH1 0x0 PUSH2 0x47F DUP3 PUSH2 0x2CA JUMP JUMPDEST SWAP2 POP PUSH2 0x48A DUP4 PUSH2 0x2CA JUMP JUMPDEST SWAP3 POP DUP3 PUSH32 0x7FFFFFFFFFFFFFFFFFFFFFFFFFFFFFFFFFFFFFFFFFFFFFFFFFFFFFFFFFFFFFFF DIV DUP3 GT PUSH1 0x0 DUP5 SGT PUSH1 0x0 DUP5 SGT AND AND ISZERO PUSH2 0x4C9 JUMPI PUSH2 0x4C8 PUSH2 0x445 JUMP JUMPDEST JUMPDEST DUP2 PUSH32 0x8000000000000000000000000000000000000000000000000000000000000000 SDIV DUP4 SLT PUSH1 0x0 DUP5 SLT PUSH1 0x0 DUP5 SGT AND AND ISZERO PUSH2 0x506 JUMPI PUSH2 0x505 PUSH2 0x445 JUMP JUMPDEST JUMPDEST DUP3 PUSH32 0x8000000000000000000000000000000000000000000000000000000000000000 SDIV DUP3 SLT PUSH1 0x0 DUP5 SGT PUSH1 0x0 DUP5 SLT AND AND ISZERO PUSH2 0x543 JUMPI PUSH2 0x542 PUSH2 0x445 JUMP JUMPDEST JUMPDEST DUP3 PUSH32 0x7FFFFFFFFFFFFFFFFFFFFFFFFFFFFFFFFFFFFFFFFFFFFFFFFFFFFFFFFFFFFFFF SDIV DUP3 SLT PUSH1 0x0 DUP5 SLT PUSH1 0x0 DUP5 SLT AND AND ISZERO PUSH2 0x580 JUMPI PUSH2 0x57F PUSH2 0x445 JUMP JUMPDEST JUMPDEST DUP3 DUP3 MUL SWAP1 POP SWAP3 SWAP2 POP POP JUMP JUMPDEST PUSH1 0x0 DUP3 DUP3 MSTORE PUSH1 0x20 DUP3 ADD SWAP1 POP SWAP3 SWAP2 POP POP JUMP JUMPDEST PUSH32 0x6E6F7420656E6F7567682073656E742100000000000000000000000000000000 PUSH1 0x0 DUP3 ADD MSTORE POP JUMP JUMPDEST PUSH1 0x0 PUSH2 0x5D2 PUSH1 0x10 DUP4 PUSH2 0x58B JUMP JUMPDEST SWAP2 POP PUSH2 0x5DD DUP3 PUSH2 0x59C JUMP JUMPDEST PUSH1 0x20 DUP3 ADD SWAP1 POP SWAP2 SWAP1 POP JUMP JUMPDEST PUSH1 0x0 PUSH1 0x20 DUP3 ADD SWAP1 POP DUP2 DUP2 SUB PUSH1 0x0 DUP4 ADD MSTORE PUSH2 0x601 DUP2 PUSH2 0x5C5 JUMP JUMPDEST SWAP1 POP SWAP2 SWAP1 POP JUMP INVALID LOG2 PUSH5 0x6970667358 0x22 SLT KECCAK256 PUSH14 0x350C8A0D50096CA327244FC221A9 SWAP1 EXTCODESIZE PUSH11 0x958494EBDE89896ADE268C 0x5C REVERT POP PUSH5 0x736F6C6343 STOP ADDMOD ADDMOD STOP CALLER "
				},
				"gasEstimates": {
					"creation": {
						"codeDepositCost": "319600",
						"executionCost": "22461",
						"totalCost": "342061"
					},
					"external": {
						"fund()": "2578",
						"getConversionRate()": "210",
						"getPrice()": "infinite",
						"getVersion()": "infinite",
						"minimumUsd()": "2407"
					}
				},
				"methodIdentifiers": {
					"fund()": "b60d4288",
					"getConversionRate()": "f36089ec",
					"getPrice()": "98d5fdca",
					"getVersion()": "0d8e6e2c",
					"minimumUsd()": "098de820"
				}
			},
			"storageLayout": {
				"storage": [
					{
						"astId": 51,
						"contract": "contracts/FundMe.sol:FundMe",
						"label": "minimumUsd",
						"offset": 0,
						"slot": "0",
						"type": "t_uint256"
					}
				],
				"types": {
					"t_uint256": {
						"encoding": "inplace",
						"label": "uint256",
						"numberOfBytes": "32"
					}
				}
			},
			"userdoc": {
				"kind": "user",
				"methods": {},
				"version": 1
			}
		}
	}
}