{
	"contracts/FundMe.sol": {
		"FundMe": {
			"abi": [
				{
					"inputs": [],
					"stateMutability": "nonpayable",
					"type": "constructor"
				},
				{
					"inputs": [
						{
							"internalType": "address",
							"name": "",
							"type": "address"
						}
					],
					"name": "addressToAmountFunded",
					"outputs": [
						{
							"internalType": "uint256",
							"name": "",
							"type": "uint256"
						}
					],
					"stateMutability": "view",
					"type": "function"
				},
				{
					"inputs": [
						{
							"internalType": "uint256",
							"name": "",
							"type": "uint256"
						}
					],
					"name": "founders",
					"outputs": [
						{
							"internalType": "address",
							"name": "",
							"type": "address"
						}
					],
					"stateMutability": "view",
					"type": "function"
				},
				{
					"inputs": [],
					"name": "fund",
					"outputs": [],
					"stateMutability": "payable",
					"type": "function"
				},
				{
					"inputs": [],
					"name": "minimumUsd",
					"outputs": [
						{
							"internalType": "uint256",
							"name": "",
							"type": "uint256"
						}
					],
					"stateMutability": "view",
					"type": "function"
				},
				{
					"inputs": [],
					"name": "owner",
					"outputs": [
						{
							"internalType": "address",
							"name": "",
							"type": "address"
						}
					],
					"stateMutability": "view",
					"type": "function"
				},
				{
					"inputs": [],
					"name": "withdraw",
					"outputs": [],
					"stateMutability": "nonpayable",
					"type": "function"
				}
			],
			"devdoc": {
				"kind": "dev",
				"methods": {},
				"version": 1
			},
			"evm": {
				"assembly": "    /* \"contracts/FundMe.sol\":94:1443  contract FundMe{... */\n  mstore(0x40, 0x80)\n    /* \"contracts/FundMe.sol\":183:192  50 * 1e18 */\n  0x02b5e3af16b1880000\n    /* \"contracts/FundMe.sol\":155:192  uint256 public minimumUsd = 50 * 1e18 */\n  0x00\n  sstore\n    /* \"contracts/FundMe.sol\":330:380  constructor(){... */\n  callvalue\n  dup1\n  iszero\n  tag_1\n  jumpi\n  0x00\n  dup1\n  revert\ntag_1:\n  pop\n    /* \"contracts/FundMe.sol\":362:372  msg.sender */\n  caller\n    /* \"contracts/FundMe.sol\":354:359  owner */\n  0x03\n  0x00\n    /* \"contracts/FundMe.sol\":354:372  owner = msg.sender */\n  0x0100\n  exp\n  dup2\n  sload\n  dup2\n  0xffffffffffffffffffffffffffffffffffffffff\n  mul\n  not\n  and\n  swap1\n  dup4\n  0xffffffffffffffffffffffffffffffffffffffff\n  and\n  mul\n  or\n  swap1\n  sstore\n  pop\n    /* \"contracts/FundMe.sol\":94:1443  contract FundMe{... */\n  dataSize(sub_0)\n  dup1\n  dataOffset(sub_0)\n  0x00\n  codecopy\n  0x00\n  return\nstop\n\nsub_0: assembly {\n        /* \"contracts/FundMe.sol\":94:1443  contract FundMe{... */\n      mstore(0x40, 0x80)\n      jumpi(tag_1, lt(calldatasize, 0x04))\n      shr(0xe0, calldataload(0x00))\n      dup1\n      0x098de820\n      eq\n      tag_2\n      jumpi\n      dup1\n      0x3ccfd60b\n      eq\n      tag_3\n      jumpi\n      dup1\n      0x3e47d6f3\n      eq\n      tag_4\n      jumpi\n      dup1\n      0x8da5cb5b\n      eq\n      tag_5\n      jumpi\n      dup1\n      0xb60d4288\n      eq\n      tag_6\n      jumpi\n      dup1\n      0xd8e75f62\n      eq\n      tag_7\n      jumpi\n    tag_1:\n      0x00\n      dup1\n      revert\n        /* \"contracts/FundMe.sol\":155:192  uint256 public minimumUsd = 50 * 1e18 */\n    tag_2:\n      callvalue\n      dup1\n      iszero\n      tag_8\n      jumpi\n      0x00\n      dup1\n      revert\n    tag_8:\n      pop\n      tag_9\n      tag_10\n      jump\t// in\n    tag_9:\n      mload(0x40)\n      tag_11\n      swap2\n      swap1\n      tag_12\n      jump\t// in\n    tag_11:\n      mload(0x40)\n      dup1\n      swap2\n      sub\n      swap1\n      return\n        /* \"contracts/FundMe.sol\":624:1326  function withdraw ()public onlyOwner {... */\n    tag_3:\n      callvalue\n      dup1\n      iszero\n      tag_13\n      jumpi\n      0x00\n      dup1\n      revert\n    tag_13:\n      pop\n      tag_14\n      tag_15\n      jump\t// in\n    tag_14:\n      stop\n        /* \"contracts/FundMe.sol\":235:292  mapping (address => uint256) public addressToAmountFunded */\n    tag_4:\n      callvalue\n      dup1\n      iszero\n      tag_16\n      jumpi\n      0x00\n      dup1\n      revert\n    tag_16:\n      pop\n      tag_17\n      0x04\n      dup1\n      calldatasize\n      sub\n      dup2\n      add\n      swap1\n      tag_18\n      swap2\n      swap1\n      tag_19\n      jump\t// in\n    tag_18:\n      tag_20\n      jump\t// in\n    tag_17:\n      mload(0x40)\n      tag_21\n      swap2\n      swap1\n      tag_12\n      jump\t// in\n    tag_21:\n      mload(0x40)\n      dup1\n      swap2\n      sub\n      swap1\n      return\n        /* \"contracts/FundMe.sol\":301:321  address public owner */\n    tag_5:\n      callvalue\n      dup1\n      iszero\n      tag_22\n      jumpi\n      0x00\n      dup1\n      revert\n    tag_22:\n      pop\n      tag_23\n      tag_24\n      jump\t// in\n    tag_23:\n      mload(0x40)\n      tag_25\n      swap2\n      swap1\n      tag_26\n      jump\t// in\n    tag_25:\n      mload(0x40)\n      dup1\n      swap2\n      sub\n      swap1\n      return\n        /* \"contracts/FundMe.sol\":388:616  function fund() public payable{... */\n    tag_6:\n      tag_27\n      tag_28\n      jump\t// in\n    tag_27:\n      stop\n        /* \"contracts/FundMe.sol\":201:226  address[] public founders */\n    tag_7:\n      callvalue\n      dup1\n      iszero\n      tag_29\n      jumpi\n      0x00\n      dup1\n      revert\n    tag_29:\n      pop\n      tag_30\n      0x04\n      dup1\n      calldatasize\n      sub\n      dup2\n      add\n      swap1\n      tag_31\n      swap2\n      swap1\n      tag_32\n      jump\t// in\n    tag_31:\n      tag_33\n      jump\t// in\n    tag_30:\n      mload(0x40)\n      tag_34\n      swap2\n      swap1\n      tag_26\n      jump\t// in\n    tag_34:\n      mload(0x40)\n      dup1\n      swap2\n      sub\n      swap1\n      return\n        /* \"contracts/FundMe.sol\":155:192  uint256 public minimumUsd = 50 * 1e18 */\n    tag_10:\n      sload(0x00)\n      dup2\n      jump\t// out\n        /* \"contracts/FundMe.sol\":624:1326  function withdraw ()public onlyOwner {... */\n    tag_15:\n        /* \"contracts/FundMe.sol\":1386:1391  owner */\n      0x03\n      0x00\n      swap1\n      sload\n      swap1\n      0x0100\n      exp\n      swap1\n      div\n      0xffffffffffffffffffffffffffffffffffffffff\n      and\n        /* \"contracts/FundMe.sol\":1372:1391  msg.sender == owner */\n      0xffffffffffffffffffffffffffffffffffffffff\n      and\n        /* \"contracts/FundMe.sol\":1372:1382  msg.sender */\n      caller\n        /* \"contracts/FundMe.sol\":1372:1391  msg.sender == owner */\n      0xffffffffffffffffffffffffffffffffffffffff\n      and\n      eq\n        /* \"contracts/FundMe.sol\":1364:1420  require(msg.sender == owner, \"sender is not the owner!\") */\n      tag_36\n      jumpi\n      mload(0x40)\n      0x08c379a000000000000000000000000000000000000000000000000000000000\n      dup2\n      mstore\n      0x04\n      add\n      tag_37\n      swap1\n      tag_38\n      jump\t// in\n    tag_37:\n      mload(0x40)\n      dup1\n      swap2\n      sub\n      swap1\n      revert\n    tag_36:\n        /* \"contracts/FundMe.sol\":677:686  uint256 i */\n      0x00\n        /* \"contracts/FundMe.sol\":672:822  for (uint256 i = 0; i < founders.length; i++){... */\n    tag_40:\n        /* \"contracts/FundMe.sol\":696:704  founders */\n      0x01\n        /* \"contracts/FundMe.sol\":696:711  founders.length */\n      dup1\n      sload\n      swap1\n      pop\n        /* \"contracts/FundMe.sol\":692:693  i */\n      dup2\n        /* \"contracts/FundMe.sol\":692:711  i < founders.length */\n      lt\n        /* \"contracts/FundMe.sol\":672:822  for (uint256 i = 0; i < founders.length; i++){... */\n      iszero\n      tag_41\n      jumpi\n        /* \"contracts/FundMe.sol\":732:747  address founder */\n      0x00\n        /* \"contracts/FundMe.sol\":750:758  founders */\n      0x01\n        /* \"contracts/FundMe.sol\":759:760  i */\n      dup3\n        /* \"contracts/FundMe.sol\":750:761  founders[i] */\n      dup2\n      sload\n      dup2\n      lt\n      tag_43\n      jumpi\n      tag_44\n      tag_45\n      jump\t// in\n    tag_44:\n    tag_43:\n      swap1\n      0x00\n      mstore\n      keccak256(0x00, 0x20)\n      add\n      0x00\n      swap1\n      sload\n      swap1\n      0x0100\n      exp\n      swap1\n      div\n      0xffffffffffffffffffffffffffffffffffffffff\n      and\n        /* \"contracts/FundMe.sol\":732:761  address founder = founders[i] */\n      swap1\n      pop\n        /* \"contracts/FundMe.sol\":809:810  0 */\n      0x00\n        /* \"contracts/FundMe.sol\":776:797  addressToAmountFunded */\n      0x02\n        /* \"contracts/FundMe.sol\":776:806  addressToAmountFunded[founder] */\n      0x00\n        /* \"contracts/FundMe.sol\":798:805  founder */\n      dup4\n        /* \"contracts/FundMe.sol\":776:806  addressToAmountFunded[founder] */\n      0xffffffffffffffffffffffffffffffffffffffff\n      and\n      0xffffffffffffffffffffffffffffffffffffffff\n      and\n      dup2\n      mstore\n      0x20\n      add\n      swap1\n      dup2\n      mstore\n      0x20\n      add\n      0x00\n      keccak256\n        /* \"contracts/FundMe.sol\":776:810  addressToAmountFunded[founder] = 0 */\n      dup2\n      swap1\n      sstore\n      pop\n        /* \"contracts/FundMe.sol\":717:822  {... */\n      pop\n        /* \"contracts/FundMe.sol\":713:716  i++ */\n      dup1\n      dup1\n      tag_47\n      swap1\n      tag_48\n      jump\t// in\n    tag_47:\n      swap2\n      pop\n      pop\n        /* \"contracts/FundMe.sol\":672:822  for (uint256 i = 0; i < founders.length; i++){... */\n      jump(tag_40)\n    tag_41:\n      pop\n        /* \"contracts/FundMe.sol\":857:858  0 */\n      0x00\n        /* \"contracts/FundMe.sol\":843:859  new address[](0) */\n      0xffffffffffffffff\n      dup2\n      gt\n      iszero\n      tag_49\n      jumpi\n      tag_50\n      tag_51\n      jump\t// in\n    tag_50:\n    tag_49:\n      mload(0x40)\n      swap1\n      dup1\n      dup3\n      mstore\n      dup1\n      0x20\n      mul\n      0x20\n      add\n      dup3\n      add\n      0x40\n      mstore\n      dup1\n      iszero\n      tag_52\n      jumpi\n      dup2\n      0x20\n      add\n      0x20\n      dup3\n      mul\n      dup1\n      calldatasize\n      dup4\n      calldatacopy\n      dup1\n      dup3\n      add\n      swap2\n      pop\n      pop\n      swap1\n      pop\n    tag_52:\n      pop\n        /* \"contracts/FundMe.sol\":832:840  founders */\n      0x01\n        /* \"contracts/FundMe.sol\":832:859  founders = new address[](0) */\n      swap1\n      dup1\n      mload\n      swap1\n      0x20\n      add\n      swap1\n      tag_53\n      swap3\n      swap2\n      swap1\n      tag_54\n      jump\t// in\n    tag_53:\n      pop\n        /* \"contracts/FundMe.sol\":1194:1210  bool callSuccess */\n      0x00\n        /* \"contracts/FundMe.sol\":1221:1231  msg.sender */\n      caller\n        /* \"contracts/FundMe.sol\":1213:1237  payable(msg.sender).call */\n      0xffffffffffffffffffffffffffffffffffffffff\n      and\n        /* \"contracts/FundMe.sol\":1245:1266  address(this).balance */\n      selfbalance\n        /* \"contracts/FundMe.sol\":1213:1271  payable(msg.sender).call{value: address(this).balance}(\"\") */\n      mload(0x40)\n      tag_55\n      swap1\n      tag_56\n      jump\t// in\n    tag_55:\n      0x00\n      mload(0x40)\n      dup1\n      dup4\n      sub\n      dup2\n      dup6\n      dup8\n      gas\n      call\n      swap3\n      pop\n      pop\n      pop\n      returndatasize\n      dup1\n      0x00\n      dup2\n      eq\n      tag_59\n      jumpi\n      mload(0x40)\n      swap2\n      pop\n      and(add(returndatasize, 0x3f), not(0x1f))\n      dup3\n      add\n      0x40\n      mstore\n      returndatasize\n      dup3\n      mstore\n      returndatasize\n      0x00\n      0x20\n      dup5\n      add\n      returndatacopy\n      jump(tag_58)\n    tag_59:\n      0x60\n      swap2\n      pop\n    tag_58:\n      pop\n        /* \"contracts/FundMe.sol\":1193:1271  (bool callSuccess,)=payable(msg.sender).call{value: address(this).balance}(\"\") */\n      pop\n      swap1\n      pop\n        /* \"contracts/FundMe.sol\":1290:1301  callSuccess */\n      dup1\n        /* \"contracts/FundMe.sol\":1282:1318  require(callSuccess, \"call failed!\") */\n      tag_60\n      jumpi\n      mload(0x40)\n      0x08c379a000000000000000000000000000000000000000000000000000000000\n      dup2\n      mstore\n      0x04\n      add\n      tag_61\n      swap1\n      tag_62\n      jump\t// in\n    tag_61:\n      mload(0x40)\n      dup1\n      swap2\n      sub\n      swap1\n      revert\n    tag_60:\n        /* \"contracts/FundMe.sol\":661:1326  {... */\n      pop\n        /* \"contracts/FundMe.sol\":624:1326  function withdraw ()public onlyOwner {... */\n      jump\t// out\n        /* \"contracts/FundMe.sol\":235:292  mapping (address => uint256) public addressToAmountFunded */\n    tag_20:\n      mstore(0x20, 0x02)\n      dup1\n      0x00\n      mstore\n      keccak256(0x00, 0x40)\n      0x00\n      swap2\n      pop\n      swap1\n      pop\n      sload\n      dup2\n      jump\t// out\n        /* \"contracts/FundMe.sol\":301:321  address public owner */\n    tag_24:\n      0x03\n      0x00\n      swap1\n      sload\n      swap1\n      0x0100\n      exp\n      swap1\n      div\n      0xffffffffffffffffffffffffffffffffffffffff\n      and\n      dup2\n      jump\t// out\n        /* \"contracts/FundMe.sol\":388:616  function fund() public payable{... */\n    tag_28:\n        /* \"contracts/FundMe.sol\":470:480  minimumUsd */\n      sload(0x00)\n        /* \"contracts/FundMe.sol\":437:466  msg.value.getConversionRate() */\n      tag_64\n        /* \"contracts/FundMe.sol\":437:446  msg.value */\n      callvalue\n        /* \"contracts/FundMe.sol\":437:464  msg.value.getConversionRate */\n      tag_65\n        /* \"contracts/FundMe.sol\":437:466  msg.value.getConversionRate() */\n      jump\t// in\n    tag_64:\n        /* \"contracts/FundMe.sol\":437:480  msg.value.getConversionRate() >= minimumUsd */\n      lt\n      iszero\n        /* \"contracts/FundMe.sol\":429:502  require(msg.value.getConversionRate() >= minimumUsd , \"not enough sent!\") */\n      tag_66\n      jumpi\n      mload(0x40)\n      0x08c379a000000000000000000000000000000000000000000000000000000000\n      dup2\n      mstore\n      0x04\n      add\n      tag_67\n      swap1\n      tag_68\n      jump\t// in\n    tag_67:\n      mload(0x40)\n      dup1\n      swap2\n      sub\n      swap1\n      revert\n    tag_66:\n        /* \"contracts/FundMe.sol\":527:535  founders */\n      0x01\n        /* \"contracts/FundMe.sol\":541:551  msg.sender */\n      caller\n        /* \"contracts/FundMe.sol\":527:552  founders.push(msg.sender) */\n      swap1\n      dup1\n      0x01\n      dup2\n      sload\n      add\n      dup1\n      dup3\n      sstore\n      dup1\n      swap2\n      pop\n      pop\n      0x01\n      swap1\n      sub\n      swap1\n      0x00\n      mstore\n      keccak256(0x00, 0x20)\n      add\n      0x00\n      swap1\n      swap2\n      swap1\n      swap2\n      swap1\n      swap2\n      0x0100\n      exp\n      dup2\n      sload\n      dup2\n      0xffffffffffffffffffffffffffffffffffffffff\n      mul\n      not\n      and\n      swap1\n      dup4\n      0xffffffffffffffffffffffffffffffffffffffff\n      and\n      mul\n      or\n      swap1\n      sstore\n      pop\n        /* \"contracts/FundMe.sol\":599:608  msg.value */\n      callvalue\n        /* \"contracts/FundMe.sol\":563:584  addressToAmountFunded */\n      0x02\n        /* \"contracts/FundMe.sol\":563:596  addressToAmountFunded[msg.sender] */\n      0x00\n        /* \"contracts/FundMe.sol\":585:595  msg.sender */\n      caller\n        /* \"contracts/FundMe.sol\":563:596  addressToAmountFunded[msg.sender] */\n      0xffffffffffffffffffffffffffffffffffffffff\n      and\n      0xffffffffffffffffffffffffffffffffffffffff\n      and\n      dup2\n      mstore\n      0x20\n      add\n      swap1\n      dup2\n      mstore\n      0x20\n      add\n      0x00\n      keccak256\n        /* \"contracts/FundMe.sol\":563:608  addressToAmountFunded[msg.sender] = msg.value */\n      dup2\n      swap1\n      sstore\n      pop\n        /* \"contracts/FundMe.sol\":388:616  function fund() public payable{... */\n      jump\t// out\n        /* \"contracts/FundMe.sol\":201:226  address[] public founders */\n    tag_33:\n      0x01\n      dup2\n      dup2\n      sload\n      dup2\n      lt\n      tag_70\n      jumpi\n      0x00\n      dup1\n      revert\n    tag_70:\n      swap1\n      0x00\n      mstore\n      keccak256(0x00, 0x20)\n      add\n      0x00\n      swap2\n      pop\n      sload\n      swap1\n      0x0100\n      exp\n      swap1\n      div\n      0xffffffffffffffffffffffffffffffffffffffff\n      and\n      dup2\n      jump\t// out\n        /* \"contracts/PriceConvertor.sol\":722:856  function getConversionRate(uint256 _ethAmount)internal view returns(uint256){... */\n    tag_65:\n        /* \"contracts/PriceConvertor.sol\":790:797  uint256 */\n      0x00\n        /* \"contracts/PriceConvertor.sol\":844:848  1e18 */\n      0x0de0b6b3a7640000\n        /* \"contracts/PriceConvertor.sol\":830:840  getPrice() */\n      tag_73\n        /* \"contracts/PriceConvertor.sol\":830:838  getPrice */\n      tag_74\n        /* \"contracts/PriceConvertor.sol\":830:840  getPrice() */\n      jump\t// in\n    tag_73:\n        /* \"contracts/PriceConvertor.sol\":817:827  _ethAmount */\n      dup4\n        /* \"contracts/PriceConvertor.sol\":817:840  _ethAmount * getPrice() */\n      tag_75\n      swap2\n      swap1\n      tag_76\n      jump\t// in\n    tag_75:\n        /* \"contracts/PriceConvertor.sol\":816:848  (_ethAmount * getPrice()) / 1e18 */\n      tag_77\n      swap2\n      swap1\n      tag_78\n      jump\t// in\n    tag_77:\n        /* \"contracts/PriceConvertor.sol\":809:848  return (_ethAmount * getPrice()) / 1e18 */\n      swap1\n      pop\n        /* \"contracts/PriceConvertor.sol\":722:856  function getConversionRate(uint256 _ethAmount)internal view returns(uint256){... */\n      swap2\n      swap1\n      pop\n      jump\t// out\n        /* \"contracts/PriceConvertor.sol\":171:501  function getPrice() internal view returns (uint256) {... */\n    tag_74:\n        /* \"contracts/PriceConvertor.sol\":214:221  uint256 */\n      0x00\n        /* \"contracts/PriceConvertor.sol\":298:328  AggregatorV3Interface dataFeed */\n      dup1\n        /* \"contracts/PriceConvertor.sol\":353:395  0x8A753747A1Fa494EC906cE90E9f37563A8AF630e */\n      0x8a753747a1fa494ec906ce90e9f37563a8af630e\n        /* \"contracts/PriceConvertor.sol\":298:396  AggregatorV3Interface dataFeed = AggregatorV3Interface(0x8A753747A1Fa494EC906cE90E9f37563A8AF630e) */\n      swap1\n      pop\n        /* \"contracts/PriceConvertor.sol\":409:421  int256 price */\n      0x00\n        /* \"contracts/PriceConvertor.sol\":428:436  dataFeed */\n      dup2\n        /* \"contracts/PriceConvertor.sol\":428:452  dataFeed.latestRoundData */\n      0xffffffffffffffffffffffffffffffffffffffff\n      and\n      0xfeaf968c\n        /* \"contracts/PriceConvertor.sol\":428:454  dataFeed.latestRoundData() */\n      mload(0x40)\n      dup2\n      0xffffffff\n      and\n      0xe0\n      shl\n      dup2\n      mstore\n      0x04\n      add\n      0xa0\n      mload(0x40)\n      dup1\n      dup4\n      sub\n      dup2\n      dup7\n      dup1\n      extcodesize\n      iszero\n      dup1\n      iszero\n      tag_80\n      jumpi\n      0x00\n      dup1\n      revert\n    tag_80:\n      pop\n      gas\n      staticcall\n      iszero\n      dup1\n      iszero\n      tag_82\n      jumpi\n      returndatasize\n      0x00\n      dup1\n      returndatacopy\n      revert(0x00, returndatasize)\n    tag_82:\n      pop\n      pop\n      pop\n      pop\n      mload(0x40)\n      returndatasize\n      not(0x1f)\n      0x1f\n      dup3\n      add\n      and\n      dup3\n      add\n      dup1\n      0x40\n      mstore\n      pop\n      dup2\n      add\n      swap1\n      tag_83\n      swap2\n      swap1\n      tag_84\n      jump\t// in\n    tag_83:\n        /* \"contracts/PriceConvertor.sol\":407:454  (,int256 price,,,) = dataFeed.latestRoundData() */\n      pop\n      pop\n      pop\n      swap2\n      pop\n      pop\n        /* \"contracts/PriceConvertor.sol\":488:492  1e10 */\n      0x02540be400\n        /* \"contracts/PriceConvertor.sol\":480:485  price */\n      dup2\n        /* \"contracts/PriceConvertor.sol\":480:492  price * 1e10 */\n      tag_85\n      swap2\n      swap1\n      tag_86\n      jump\t// in\n    tag_85:\n        /* \"contracts/PriceConvertor.sol\":465:493  return uint256(price * 1e10) */\n      swap3\n      pop\n      pop\n      pop\n        /* \"contracts/PriceConvertor.sol\":171:501  function getPrice() internal view returns (uint256) {... */\n      swap1\n      jump\t// out\n    tag_54:\n      dup3\n      dup1\n      sload\n      dup3\n      dup3\n      sstore\n      swap1\n      0x00\n      mstore\n      keccak256(0x00, 0x20)\n      swap1\n      dup2\n      add\n      swap3\n      dup3\n      iszero\n      tag_87\n      jumpi\n      swap2\n      0x20\n      mul\n      dup3\n      add\n    tag_88:\n      dup3\n      dup2\n      gt\n      iszero\n      tag_89\n      jumpi\n      dup3\n      mload\n      dup3\n      exp(0x0100, 0x00)\n      dup2\n      sload\n      dup2\n      0xffffffffffffffffffffffffffffffffffffffff\n      mul\n      not\n      and\n      swap1\n      dup4\n      0xffffffffffffffffffffffffffffffffffffffff\n      and\n      mul\n      or\n      swap1\n      sstore\n      pop\n      swap2\n      0x20\n      add\n      swap2\n      swap1\n      0x01\n      add\n      swap1\n      jump(tag_88)\n    tag_89:\n    tag_87:\n      pop\n      swap1\n      pop\n      tag_90\n      swap2\n      swap1\n      tag_91\n      jump\t// in\n    tag_90:\n      pop\n      swap1\n      jump\t// out\n    tag_91:\n    tag_92:\n      dup1\n      dup3\n      gt\n      iszero\n      tag_93\n      jumpi\n      0x00\n      dup2\n      0x00\n      swap1\n      sstore\n      pop\n      0x01\n      add\n      jump(tag_92)\n    tag_93:\n      pop\n      swap1\n      jump\t// out\n        /* \"#utility.yul\":7:84   */\n    tag_94:\n        /* \"#utility.yul\":44:51   */\n      0x00\n        /* \"#utility.yul\":73:78   */\n      dup2\n        /* \"#utility.yul\":62:78   */\n      swap1\n      pop\n        /* \"#utility.yul\":7:84   */\n      swap2\n      swap1\n      pop\n      jump\t// out\n        /* \"#utility.yul\":90:208   */\n    tag_95:\n        /* \"#utility.yul\":177:201   */\n      tag_128\n        /* \"#utility.yul\":195:200   */\n      dup2\n        /* \"#utility.yul\":177:201   */\n      tag_94\n      jump\t// in\n    tag_128:\n        /* \"#utility.yul\":172:175   */\n      dup3\n        /* \"#utility.yul\":165:202   */\n      mstore\n        /* \"#utility.yul\":90:208   */\n      pop\n      pop\n      jump\t// out\n        /* \"#utility.yul\":214:436   */\n    tag_12:\n        /* \"#utility.yul\":307:311   */\n      0x00\n        /* \"#utility.yul\":345:347   */\n      0x20\n        /* \"#utility.yul\":334:343   */\n      dup3\n        /* \"#utility.yul\":330:348   */\n      add\n        /* \"#utility.yul\":322:348   */\n      swap1\n      pop\n        /* \"#utility.yul\":358:429   */\n      tag_130\n        /* \"#utility.yul\":426:427   */\n      0x00\n        /* \"#utility.yul\":415:424   */\n      dup4\n        /* \"#utility.yul\":411:428   */\n      add\n        /* \"#utility.yul\":402:408   */\n      dup5\n        /* \"#utility.yul\":358:429   */\n      tag_95\n      jump\t// in\n    tag_130:\n        /* \"#utility.yul\":214:436   */\n      swap3\n      swap2\n      pop\n      pop\n      jump\t// out\n        /* \"#utility.yul\":523:640   */\n    tag_97:\n        /* \"#utility.yul\":632:633   */\n      0x00\n        /* \"#utility.yul\":629:630   */\n      dup1\n        /* \"#utility.yul\":622:634   */\n      revert\n        /* \"#utility.yul\":769:895   */\n    tag_99:\n        /* \"#utility.yul\":806:813   */\n      0x00\n        /* \"#utility.yul\":846:888   */\n      0xffffffffffffffffffffffffffffffffffffffff\n        /* \"#utility.yul\":839:844   */\n      dup3\n        /* \"#utility.yul\":835:889   */\n      and\n        /* \"#utility.yul\":824:889   */\n      swap1\n      pop\n        /* \"#utility.yul\":769:895   */\n      swap2\n      swap1\n      pop\n      jump\t// out\n        /* \"#utility.yul\":901:997   */\n    tag_100:\n        /* \"#utility.yul\":938:945   */\n      0x00\n        /* \"#utility.yul\":967:991   */\n      tag_136\n        /* \"#utility.yul\":985:990   */\n      dup3\n        /* \"#utility.yul\":967:991   */\n      tag_99\n      jump\t// in\n    tag_136:\n        /* \"#utility.yul\":956:991   */\n      swap1\n      pop\n        /* \"#utility.yul\":901:997   */\n      swap2\n      swap1\n      pop\n      jump\t// out\n        /* \"#utility.yul\":1003:1125   */\n    tag_101:\n        /* \"#utility.yul\":1076:1100   */\n      tag_138\n        /* \"#utility.yul\":1094:1099   */\n      dup2\n        /* \"#utility.yul\":1076:1100   */\n      tag_100\n      jump\t// in\n    tag_138:\n        /* \"#utility.yul\":1069:1074   */\n      dup2\n        /* \"#utility.yul\":1066:1101   */\n      eq\n        /* \"#utility.yul\":1056:1119   */\n      tag_139\n      jumpi\n        /* \"#utility.yul\":1115:1116   */\n      0x00\n        /* \"#utility.yul\":1112:1113   */\n      dup1\n        /* \"#utility.yul\":1105:1117   */\n      revert\n        /* \"#utility.yul\":1056:1119   */\n    tag_139:\n        /* \"#utility.yul\":1003:1125   */\n      pop\n      jump\t// out\n        /* \"#utility.yul\":1131:1270   */\n    tag_102:\n        /* \"#utility.yul\":1177:1182   */\n      0x00\n        /* \"#utility.yul\":1215:1221   */\n      dup2\n        /* \"#utility.yul\":1202:1222   */\n      calldataload\n        /* \"#utility.yul\":1193:1222   */\n      swap1\n      pop\n        /* \"#utility.yul\":1231:1264   */\n      tag_141\n        /* \"#utility.yul\":1258:1263   */\n      dup2\n        /* \"#utility.yul\":1231:1264   */\n      tag_101\n      jump\t// in\n    tag_141:\n        /* \"#utility.yul\":1131:1270   */\n      swap3\n      swap2\n      pop\n      pop\n      jump\t// out\n        /* \"#utility.yul\":1276:1605   */\n    tag_19:\n        /* \"#utility.yul\":1335:1341   */\n      0x00\n        /* \"#utility.yul\":1384:1386   */\n      0x20\n        /* \"#utility.yul\":1372:1381   */\n      dup3\n        /* \"#utility.yul\":1363:1370   */\n      dup5\n        /* \"#utility.yul\":1359:1382   */\n      sub\n        /* \"#utility.yul\":1355:1387   */\n      slt\n        /* \"#utility.yul\":1352:1471   */\n      iszero\n      tag_143\n      jumpi\n        /* \"#utility.yul\":1390:1469   */\n      tag_144\n      tag_97\n      jump\t// in\n    tag_144:\n        /* \"#utility.yul\":1352:1471   */\n    tag_143:\n        /* \"#utility.yul\":1510:1511   */\n      0x00\n        /* \"#utility.yul\":1535:1588   */\n      tag_145\n        /* \"#utility.yul\":1580:1587   */\n      dup5\n        /* \"#utility.yul\":1571:1577   */\n      dup3\n        /* \"#utility.yul\":1560:1569   */\n      dup6\n        /* \"#utility.yul\":1556:1578   */\n      add\n        /* \"#utility.yul\":1535:1588   */\n      tag_102\n      jump\t// in\n    tag_145:\n        /* \"#utility.yul\":1525:1588   */\n      swap2\n      pop\n        /* \"#utility.yul\":1481:1598   */\n      pop\n        /* \"#utility.yul\":1276:1605   */\n      swap3\n      swap2\n      pop\n      pop\n      jump\t// out\n        /* \"#utility.yul\":1611:1729   */\n    tag_103:\n        /* \"#utility.yul\":1698:1722   */\n      tag_147\n        /* \"#utility.yul\":1716:1721   */\n      dup2\n        /* \"#utility.yul\":1698:1722   */\n      tag_100\n      jump\t// in\n    tag_147:\n        /* \"#utility.yul\":1693:1696   */\n      dup3\n        /* \"#utility.yul\":1686:1723   */\n      mstore\n        /* \"#utility.yul\":1611:1729   */\n      pop\n      pop\n      jump\t// out\n        /* \"#utility.yul\":1735:1957   */\n    tag_26:\n        /* \"#utility.yul\":1828:1832   */\n      0x00\n        /* \"#utility.yul\":1866:1868   */\n      0x20\n        /* \"#utility.yul\":1855:1864   */\n      dup3\n        /* \"#utility.yul\":1851:1869   */\n      add\n        /* \"#utility.yul\":1843:1869   */\n      swap1\n      pop\n        /* \"#utility.yul\":1879:1950   */\n      tag_149\n        /* \"#utility.yul\":1947:1948   */\n      0x00\n        /* \"#utility.yul\":1936:1945   */\n      dup4\n        /* \"#utility.yul\":1932:1949   */\n      add\n        /* \"#utility.yul\":1923:1929   */\n      dup5\n        /* \"#utility.yul\":1879:1950   */\n      tag_103\n      jump\t// in\n    tag_149:\n        /* \"#utility.yul\":1735:1957   */\n      swap3\n      swap2\n      pop\n      pop\n      jump\t// out\n        /* \"#utility.yul\":1963:2085   */\n    tag_104:\n        /* \"#utility.yul\":2036:2060   */\n      tag_151\n        /* \"#utility.yul\":2054:2059   */\n      dup2\n        /* \"#utility.yul\":2036:2060   */\n      tag_94\n      jump\t// in\n    tag_151:\n        /* \"#utility.yul\":2029:2034   */\n      dup2\n        /* \"#utility.yul\":2026:2061   */\n      eq\n        /* \"#utility.yul\":2016:2079   */\n      tag_152\n      jumpi\n        /* \"#utility.yul\":2075:2076   */\n      0x00\n        /* \"#utility.yul\":2072:2073   */\n      dup1\n        /* \"#utility.yul\":2065:2077   */\n      revert\n        /* \"#utility.yul\":2016:2079   */\n    tag_152:\n        /* \"#utility.yul\":1963:2085   */\n      pop\n      jump\t// out\n        /* \"#utility.yul\":2091:2230   */\n    tag_105:\n        /* \"#utility.yul\":2137:2142   */\n      0x00\n        /* \"#utility.yul\":2175:2181   */\n      dup2\n        /* \"#utility.yul\":2162:2182   */\n      calldataload\n        /* \"#utility.yul\":2153:2182   */\n      swap1\n      pop\n        /* \"#utility.yul\":2191:2224   */\n      tag_154\n        /* \"#utility.yul\":2218:2223   */\n      dup2\n        /* \"#utility.yul\":2191:2224   */\n      tag_104\n      jump\t// in\n    tag_154:\n        /* \"#utility.yul\":2091:2230   */\n      swap3\n      swap2\n      pop\n      pop\n      jump\t// out\n        /* \"#utility.yul\":2236:2565   */\n    tag_32:\n        /* \"#utility.yul\":2295:2301   */\n      0x00\n        /* \"#utility.yul\":2344:2346   */\n      0x20\n        /* \"#utility.yul\":2332:2341   */\n      dup3\n        /* \"#utility.yul\":2323:2330   */\n      dup5\n        /* \"#utility.yul\":2319:2342   */\n      sub\n        /* \"#utility.yul\":2315:2347   */\n      slt\n        /* \"#utility.yul\":2312:2431   */\n      iszero\n      tag_156\n      jumpi\n        /* \"#utility.yul\":2350:2429   */\n      tag_157\n      tag_97\n      jump\t// in\n    tag_157:\n        /* \"#utility.yul\":2312:2431   */\n    tag_156:\n        /* \"#utility.yul\":2470:2471   */\n      0x00\n        /* \"#utility.yul\":2495:2548   */\n      tag_158\n        /* \"#utility.yul\":2540:2547   */\n      dup5\n        /* \"#utility.yul\":2531:2537   */\n      dup3\n        /* \"#utility.yul\":2520:2529   */\n      dup6\n        /* \"#utility.yul\":2516:2538   */\n      add\n        /* \"#utility.yul\":2495:2548   */\n      tag_105\n      jump\t// in\n    tag_158:\n        /* \"#utility.yul\":2485:2548   */\n      swap2\n      pop\n        /* \"#utility.yul\":2441:2558   */\n      pop\n        /* \"#utility.yul\":2236:2565   */\n      swap3\n      swap2\n      pop\n      pop\n      jump\t// out\n        /* \"#utility.yul\":2571:2740   */\n    tag_106:\n        /* \"#utility.yul\":2655:2666   */\n      0x00\n        /* \"#utility.yul\":2689:2695   */\n      dup3\n        /* \"#utility.yul\":2684:2687   */\n      dup3\n        /* \"#utility.yul\":2677:2696   */\n      mstore\n        /* \"#utility.yul\":2729:2733   */\n      0x20\n        /* \"#utility.yul\":2724:2727   */\n      dup3\n        /* \"#utility.yul\":2720:2734   */\n      add\n        /* \"#utility.yul\":2705:2734   */\n      swap1\n      pop\n        /* \"#utility.yul\":2571:2740   */\n      swap3\n      swap2\n      pop\n      pop\n      jump\t// out\n        /* \"#utility.yul\":2746:2920   */\n    tag_107:\n        /* \"#utility.yul\":2886:2912   */\n      0x73656e646572206973206e6f7420746865206f776e6572210000000000000000\n        /* \"#utility.yul\":2882:2883   */\n      0x00\n        /* \"#utility.yul\":2874:2880   */\n      dup3\n        /* \"#utility.yul\":2870:2884   */\n      add\n        /* \"#utility.yul\":2863:2913   */\n      mstore\n        /* \"#utility.yul\":2746:2920   */\n      pop\n      jump\t// out\n        /* \"#utility.yul\":2926:3292   */\n    tag_108:\n        /* \"#utility.yul\":3068:3071   */\n      0x00\n        /* \"#utility.yul\":3089:3156   */\n      tag_162\n        /* \"#utility.yul\":3153:3155   */\n      0x18\n        /* \"#utility.yul\":3148:3151   */\n      dup4\n        /* \"#utility.yul\":3089:3156   */\n      tag_106\n      jump\t// in\n    tag_162:\n        /* \"#utility.yul\":3082:3156   */\n      swap2\n      pop\n        /* \"#utility.yul\":3165:3258   */\n      tag_163\n        /* \"#utility.yul\":3254:3257   */\n      dup3\n        /* \"#utility.yul\":3165:3258   */\n      tag_107\n      jump\t// in\n    tag_163:\n        /* \"#utility.yul\":3283:3285   */\n      0x20\n        /* \"#utility.yul\":3278:3281   */\n      dup3\n        /* \"#utility.yul\":3274:3286   */\n      add\n        /* \"#utility.yul\":3267:3286   */\n      swap1\n      pop\n        /* \"#utility.yul\":2926:3292   */\n      swap2\n      swap1\n      pop\n      jump\t// out\n        /* \"#utility.yul\":3298:3717   */\n    tag_38:\n        /* \"#utility.yul\":3464:3468   */\n      0x00\n        /* \"#utility.yul\":3502:3504   */\n      0x20\n        /* \"#utility.yul\":3491:3500   */\n      dup3\n        /* \"#utility.yul\":3487:3505   */\n      add\n        /* \"#utility.yul\":3479:3505   */\n      swap1\n      pop\n        /* \"#utility.yul\":3551:3560   */\n      dup2\n        /* \"#utility.yul\":3545:3549   */\n      dup2\n        /* \"#utility.yul\":3541:3561   */\n      sub\n        /* \"#utility.yul\":3537:3538   */\n      0x00\n        /* \"#utility.yul\":3526:3535   */\n      dup4\n        /* \"#utility.yul\":3522:3539   */\n      add\n        /* \"#utility.yul\":3515:3562   */\n      mstore\n        /* \"#utility.yul\":3579:3710   */\n      tag_165\n        /* \"#utility.yul\":3705:3709   */\n      dup2\n        /* \"#utility.yul\":3579:3710   */\n      tag_108\n      jump\t// in\n    tag_165:\n        /* \"#utility.yul\":3571:3710   */\n      swap1\n      pop\n        /* \"#utility.yul\":3298:3717   */\n      swap2\n      swap1\n      pop\n      jump\t// out\n        /* \"#utility.yul\":3723:3903   */\n    tag_45:\n        /* \"#utility.yul\":3771:3848   */\n      0x4e487b7100000000000000000000000000000000000000000000000000000000\n        /* \"#utility.yul\":3768:3769   */\n      0x00\n        /* \"#utility.yul\":3761:3849   */\n      mstore\n        /* \"#utility.yul\":3868:3872   */\n      0x32\n        /* \"#utility.yul\":3865:3866   */\n      0x04\n        /* \"#utility.yul\":3858:3873   */\n      mstore\n        /* \"#utility.yul\":3892:3896   */\n      0x24\n        /* \"#utility.yul\":3889:3890   */\n      0x00\n        /* \"#utility.yul\":3882:3897   */\n      revert\n        /* \"#utility.yul\":3909:4089   */\n    tag_109:\n        /* \"#utility.yul\":3957:4034   */\n      0x4e487b7100000000000000000000000000000000000000000000000000000000\n        /* \"#utility.yul\":3954:3955   */\n      0x00\n        /* \"#utility.yul\":3947:4035   */\n      mstore\n        /* \"#utility.yul\":4054:4058   */\n      0x11\n        /* \"#utility.yul\":4051:4052   */\n      0x04\n        /* \"#utility.yul\":4044:4059   */\n      mstore\n        /* \"#utility.yul\":4078:4082   */\n      0x24\n        /* \"#utility.yul\":4075:4076   */\n      0x00\n        /* \"#utility.yul\":4068:4083   */\n      revert\n        /* \"#utility.yul\":4095:4328   */\n    tag_48:\n        /* \"#utility.yul\":4134:4137   */\n      0x00\n        /* \"#utility.yul\":4157:4181   */\n      tag_169\n        /* \"#utility.yul\":4175:4180   */\n      dup3\n        /* \"#utility.yul\":4157:4181   */\n      tag_94\n      jump\t// in\n    tag_169:\n        /* \"#utility.yul\":4148:4181   */\n      swap2\n      pop\n        /* \"#utility.yul\":4203:4269   */\n      0xffffffffffffffffffffffffffffffffffffffffffffffffffffffffffffffff\n        /* \"#utility.yul\":4196:4201   */\n      dup3\n        /* \"#utility.yul\":4193:4270   */\n      eq\n        /* \"#utility.yul\":4190:4293   */\n      iszero\n      tag_170\n      jumpi\n        /* \"#utility.yul\":4273:4291   */\n      tag_171\n      tag_109\n      jump\t// in\n    tag_171:\n        /* \"#utility.yul\":4190:4293   */\n    tag_170:\n        /* \"#utility.yul\":4320:4321   */\n      0x01\n        /* \"#utility.yul\":4313:4318   */\n      dup3\n        /* \"#utility.yul\":4309:4322   */\n      add\n        /* \"#utility.yul\":4302:4322   */\n      swap1\n      pop\n        /* \"#utility.yul\":4095:4328   */\n      swap2\n      swap1\n      pop\n      jump\t// out\n        /* \"#utility.yul\":4334:4514   */\n    tag_51:\n        /* \"#utility.yul\":4382:4459   */\n      0x4e487b7100000000000000000000000000000000000000000000000000000000\n        /* \"#utility.yul\":4379:4380   */\n      0x00\n        /* \"#utility.yul\":4372:4460   */\n      mstore\n        /* \"#utility.yul\":4479:4483   */\n      0x41\n        /* \"#utility.yul\":4476:4477   */\n      0x04\n        /* \"#utility.yul\":4469:4484   */\n      mstore\n        /* \"#utility.yul\":4503:4507   */\n      0x24\n        /* \"#utility.yul\":4500:4501   */\n      0x00\n        /* \"#utility.yul\":4493:4508   */\n      revert\n        /* \"#utility.yul\":4520:4667   */\n    tag_110:\n        /* \"#utility.yul\":4621:4632   */\n      0x00\n        /* \"#utility.yul\":4658:4661   */\n      dup2\n        /* \"#utility.yul\":4643:4661   */\n      swap1\n      pop\n        /* \"#utility.yul\":4520:4667   */\n      swap3\n      swap2\n      pop\n      pop\n      jump\t// out\n        /* \"#utility.yul\":4673:4787   */\n    tag_111:\n      pop\n      jump\t// out\n        /* \"#utility.yul\":4793:5191   */\n    tag_112:\n        /* \"#utility.yul\":4952:4955   */\n      0x00\n        /* \"#utility.yul\":4973:5056   */\n      tag_176\n        /* \"#utility.yul\":5054:5055   */\n      0x00\n        /* \"#utility.yul\":5049:5052   */\n      dup4\n        /* \"#utility.yul\":4973:5056   */\n      tag_110\n      jump\t// in\n    tag_176:\n        /* \"#utility.yul\":4966:5056   */\n      swap2\n      pop\n        /* \"#utility.yul\":5065:5158   */\n      tag_177\n        /* \"#utility.yul\":5154:5157   */\n      dup3\n        /* \"#utility.yul\":5065:5158   */\n      tag_111\n      jump\t// in\n    tag_177:\n        /* \"#utility.yul\":5183:5184   */\n      0x00\n        /* \"#utility.yul\":5178:5181   */\n      dup3\n        /* \"#utility.yul\":5174:5185   */\n      add\n        /* \"#utility.yul\":5167:5185   */\n      swap1\n      pop\n        /* \"#utility.yul\":4793:5191   */\n      swap2\n      swap1\n      pop\n      jump\t// out\n        /* \"#utility.yul\":5197:5576   */\n    tag_56:\n        /* \"#utility.yul\":5381:5384   */\n      0x00\n        /* \"#utility.yul\":5403:5550   */\n      tag_179\n        /* \"#utility.yul\":5546:5549   */\n      dup3\n        /* \"#utility.yul\":5403:5550   */\n      tag_112\n      jump\t// in\n    tag_179:\n        /* \"#utility.yul\":5396:5550   */\n      swap2\n      pop\n        /* \"#utility.yul\":5567:5570   */\n      dup2\n        /* \"#utility.yul\":5560:5570   */\n      swap1\n      pop\n        /* \"#utility.yul\":5197:5576   */\n      swap2\n      swap1\n      pop\n      jump\t// out\n        /* \"#utility.yul\":5582:5744   */\n    tag_113:\n        /* \"#utility.yul\":5722:5736   */\n      0x63616c6c206661696c6564210000000000000000000000000000000000000000\n        /* \"#utility.yul\":5718:5719   */\n      0x00\n        /* \"#utility.yul\":5710:5716   */\n      dup3\n        /* \"#utility.yul\":5706:5720   */\n      add\n        /* \"#utility.yul\":5699:5737   */\n      mstore\n        /* \"#utility.yul\":5582:5744   */\n      pop\n      jump\t// out\n        /* \"#utility.yul\":5750:6116   */\n    tag_114:\n        /* \"#utility.yul\":5892:5895   */\n      0x00\n        /* \"#utility.yul\":5913:5980   */\n      tag_182\n        /* \"#utility.yul\":5977:5979   */\n      0x0c\n        /* \"#utility.yul\":5972:5975   */\n      dup4\n        /* \"#utility.yul\":5913:5980   */\n      tag_106\n      jump\t// in\n    tag_182:\n        /* \"#utility.yul\":5906:5980   */\n      swap2\n      pop\n        /* \"#utility.yul\":5989:6082   */\n      tag_183\n        /* \"#utility.yul\":6078:6081   */\n      dup3\n        /* \"#utility.yul\":5989:6082   */\n      tag_113\n      jump\t// in\n    tag_183:\n        /* \"#utility.yul\":6107:6109   */\n      0x20\n        /* \"#utility.yul\":6102:6105   */\n      dup3\n        /* \"#utility.yul\":6098:6110   */\n      add\n        /* \"#utility.yul\":6091:6110   */\n      swap1\n      pop\n        /* \"#utility.yul\":5750:6116   */\n      swap2\n      swap1\n      pop\n      jump\t// out\n        /* \"#utility.yul\":6122:6541   */\n    tag_62:\n        /* \"#utility.yul\":6288:6292   */\n      0x00\n        /* \"#utility.yul\":6326:6328   */\n      0x20\n        /* \"#utility.yul\":6315:6324   */\n      dup3\n        /* \"#utility.yul\":6311:6329   */\n      add\n        /* \"#utility.yul\":6303:6329   */\n      swap1\n      pop\n        /* \"#utility.yul\":6375:6384   */\n      dup2\n        /* \"#utility.yul\":6369:6373   */\n      dup2\n        /* \"#utility.yul\":6365:6385   */\n      sub\n        /* \"#utility.yul\":6361:6362   */\n      0x00\n        /* \"#utility.yul\":6350:6359   */\n      dup4\n        /* \"#utility.yul\":6346:6363   */\n      add\n        /* \"#utility.yul\":6339:6386   */\n      mstore\n        /* \"#utility.yul\":6403:6534   */\n      tag_185\n        /* \"#utility.yul\":6529:6533   */\n      dup2\n        /* \"#utility.yul\":6403:6534   */\n      tag_114\n      jump\t// in\n    tag_185:\n        /* \"#utility.yul\":6395:6534   */\n      swap1\n      pop\n        /* \"#utility.yul\":6122:6541   */\n      swap2\n      swap1\n      pop\n      jump\t// out\n        /* \"#utility.yul\":6547:6713   */\n    tag_115:\n        /* \"#utility.yul\":6687:6705   */\n      0x6e6f7420656e6f7567682073656e742100000000000000000000000000000000\n        /* \"#utility.yul\":6683:6684   */\n      0x00\n        /* \"#utility.yul\":6675:6681   */\n      dup3\n        /* \"#utility.yul\":6671:6685   */\n      add\n        /* \"#utility.yul\":6664:6706   */\n      mstore\n        /* \"#utility.yul\":6547:6713   */\n      pop\n      jump\t// out\n        /* \"#utility.yul\":6719:7085   */\n    tag_116:\n        /* \"#utility.yul\":6861:6864   */\n      0x00\n        /* \"#utility.yul\":6882:6949   */\n      tag_188\n        /* \"#utility.yul\":6946:6948   */\n      0x10\n        /* \"#utility.yul\":6941:6944   */\n      dup4\n        /* \"#utility.yul\":6882:6949   */\n      tag_106\n      jump\t// in\n    tag_188:\n        /* \"#utility.yul\":6875:6949   */\n      swap2\n      pop\n        /* \"#utility.yul\":6958:7051   */\n      tag_189\n        /* \"#utility.yul\":7047:7050   */\n      dup3\n        /* \"#utility.yul\":6958:7051   */\n      tag_115\n      jump\t// in\n    tag_189:\n        /* \"#utility.yul\":7076:7078   */\n      0x20\n        /* \"#utility.yul\":7071:7074   */\n      dup3\n        /* \"#utility.yul\":7067:7079   */\n      add\n        /* \"#utility.yul\":7060:7079   */\n      swap1\n      pop\n        /* \"#utility.yul\":6719:7085   */\n      swap2\n      swap1\n      pop\n      jump\t// out\n        /* \"#utility.yul\":7091:7510   */\n    tag_68:\n        /* \"#utility.yul\":7257:7261   */\n      0x00\n        /* \"#utility.yul\":7295:7297   */\n      0x20\n        /* \"#utility.yul\":7284:7293   */\n      dup3\n        /* \"#utility.yul\":7280:7298   */\n      add\n        /* \"#utility.yul\":7272:7298   */\n      swap1\n      pop\n        /* \"#utility.yul\":7344:7353   */\n      dup2\n        /* \"#utility.yul\":7338:7342   */\n      dup2\n        /* \"#utility.yul\":7334:7354   */\n      sub\n        /* \"#utility.yul\":7330:7331   */\n      0x00\n        /* \"#utility.yul\":7319:7328   */\n      dup4\n        /* \"#utility.yul\":7315:7332   */\n      add\n        /* \"#utility.yul\":7308:7355   */\n      mstore\n        /* \"#utility.yul\":7372:7503   */\n      tag_191\n        /* \"#utility.yul\":7498:7502   */\n      dup2\n        /* \"#utility.yul\":7372:7503   */\n      tag_116\n      jump\t// in\n    tag_191:\n        /* \"#utility.yul\":7364:7503   */\n      swap1\n      pop\n        /* \"#utility.yul\":7091:7510   */\n      swap2\n      swap1\n      pop\n      jump\t// out\n        /* \"#utility.yul\":7516:7864   */\n    tag_76:\n        /* \"#utility.yul\":7556:7563   */\n      0x00\n        /* \"#utility.yul\":7579:7599   */\n      tag_193\n        /* \"#utility.yul\":7597:7598   */\n      dup3\n        /* \"#utility.yul\":7579:7599   */\n      tag_94\n      jump\t// in\n    tag_193:\n        /* \"#utility.yul\":7574:7599   */\n      swap2\n      pop\n        /* \"#utility.yul\":7613:7633   */\n      tag_194\n        /* \"#utility.yul\":7631:7632   */\n      dup4\n        /* \"#utility.yul\":7613:7633   */\n      tag_94\n      jump\t// in\n    tag_194:\n        /* \"#utility.yul\":7608:7633   */\n      swap3\n      pop\n        /* \"#utility.yul\":7801:7802   */\n      dup2\n        /* \"#utility.yul\":7733:7799   */\n      0xffffffffffffffffffffffffffffffffffffffffffffffffffffffffffffffff\n        /* \"#utility.yul\":7729:7803   */\n      div\n        /* \"#utility.yul\":7726:7727   */\n      dup4\n        /* \"#utility.yul\":7723:7804   */\n      gt\n        /* \"#utility.yul\":7718:7719   */\n      dup3\n        /* \"#utility.yul\":7711:7720   */\n      iszero\n        /* \"#utility.yul\":7704:7721   */\n      iszero\n        /* \"#utility.yul\":7700:7805   */\n      and\n        /* \"#utility.yul\":7697:7828   */\n      iszero\n      tag_195\n      jumpi\n        /* \"#utility.yul\":7808:7826   */\n      tag_196\n      tag_109\n      jump\t// in\n    tag_196:\n        /* \"#utility.yul\":7697:7828   */\n    tag_195:\n        /* \"#utility.yul\":7856:7857   */\n      dup3\n        /* \"#utility.yul\":7853:7854   */\n      dup3\n        /* \"#utility.yul\":7849:7858   */\n      mul\n        /* \"#utility.yul\":7838:7858   */\n      swap1\n      pop\n        /* \"#utility.yul\":7516:7864   */\n      swap3\n      swap2\n      pop\n      pop\n      jump\t// out\n        /* \"#utility.yul\":7870:8050   */\n    tag_117:\n        /* \"#utility.yul\":7918:7995   */\n      0x4e487b7100000000000000000000000000000000000000000000000000000000\n        /* \"#utility.yul\":7915:7916   */\n      0x00\n        /* \"#utility.yul\":7908:7996   */\n      mstore\n        /* \"#utility.yul\":8015:8019   */\n      0x12\n        /* \"#utility.yul\":8012:8013   */\n      0x04\n        /* \"#utility.yul\":8005:8020   */\n      mstore\n        /* \"#utility.yul\":8039:8043   */\n      0x24\n        /* \"#utility.yul\":8036:8037   */\n      0x00\n        /* \"#utility.yul\":8029:8044   */\n      revert\n        /* \"#utility.yul\":8056:8241   */\n    tag_78:\n        /* \"#utility.yul\":8096:8097   */\n      0x00\n        /* \"#utility.yul\":8113:8133   */\n      tag_199\n        /* \"#utility.yul\":8131:8132   */\n      dup3\n        /* \"#utility.yul\":8113:8133   */\n      tag_94\n      jump\t// in\n    tag_199:\n        /* \"#utility.yul\":8108:8133   */\n      swap2\n      pop\n        /* \"#utility.yul\":8147:8167   */\n      tag_200\n        /* \"#utility.yul\":8165:8166   */\n      dup4\n        /* \"#utility.yul\":8147:8167   */\n      tag_94\n      jump\t// in\n    tag_200:\n        /* \"#utility.yul\":8142:8167   */\n      swap3\n      pop\n        /* \"#utility.yul\":8186:8187   */\n      dup3\n        /* \"#utility.yul\":8176:8211   */\n      tag_201\n      jumpi\n        /* \"#utility.yul\":8191:8209   */\n      tag_202\n      tag_117\n      jump\t// in\n    tag_202:\n        /* \"#utility.yul\":8176:8211   */\n    tag_201:\n        /* \"#utility.yul\":8233:8234   */\n      dup3\n        /* \"#utility.yul\":8230:8231   */\n      dup3\n        /* \"#utility.yul\":8226:8235   */\n      div\n        /* \"#utility.yul\":8221:8235   */\n      swap1\n      pop\n        /* \"#utility.yul\":8056:8241   */\n      swap3\n      swap2\n      pop\n      pop\n      jump\t// out\n        /* \"#utility.yul\":8247:8352   */\n    tag_118:\n        /* \"#utility.yul\":8283:8290   */\n      0x00\n        /* \"#utility.yul\":8323:8345   */\n      0xffffffffffffffffffff\n        /* \"#utility.yul\":8316:8321   */\n      dup3\n        /* \"#utility.yul\":8312:8346   */\n      and\n        /* \"#utility.yul\":8301:8346   */\n      swap1\n      pop\n        /* \"#utility.yul\":8247:8352   */\n      swap2\n      swap1\n      pop\n      jump\t// out\n        /* \"#utility.yul\":8358:8478   */\n    tag_119:\n        /* \"#utility.yul\":8430:8453   */\n      tag_205\n        /* \"#utility.yul\":8447:8452   */\n      dup2\n        /* \"#utility.yul\":8430:8453   */\n      tag_118\n      jump\t// in\n    tag_205:\n        /* \"#utility.yul\":8423:8428   */\n      dup2\n        /* \"#utility.yul\":8420:8454   */\n      eq\n        /* \"#utility.yul\":8410:8472   */\n      tag_206\n      jumpi\n        /* \"#utility.yul\":8468:8469   */\n      0x00\n        /* \"#utility.yul\":8465:8466   */\n      dup1\n        /* \"#utility.yul\":8458:8470   */\n      revert\n        /* \"#utility.yul\":8410:8472   */\n    tag_206:\n        /* \"#utility.yul\":8358:8478   */\n      pop\n      jump\t// out\n        /* \"#utility.yul\":8484:8625   */\n    tag_120:\n        /* \"#utility.yul\":8540:8545   */\n      0x00\n        /* \"#utility.yul\":8571:8577   */\n      dup2\n        /* \"#utility.yul\":8565:8578   */\n      mload\n        /* \"#utility.yul\":8556:8578   */\n      swap1\n      pop\n        /* \"#utility.yul\":8587:8619   */\n      tag_208\n        /* \"#utility.yul\":8613:8618   */\n      dup2\n        /* \"#utility.yul\":8587:8619   */\n      tag_119\n      jump\t// in\n    tag_208:\n        /* \"#utility.yul\":8484:8625   */\n      swap3\n      swap2\n      pop\n      pop\n      jump\t// out\n        /* \"#utility.yul\":8631:8707   */\n    tag_121:\n        /* \"#utility.yul\":8667:8674   */\n      0x00\n        /* \"#utility.yul\":8696:8701   */\n      dup2\n        /* \"#utility.yul\":8685:8701   */\n      swap1\n      pop\n        /* \"#utility.yul\":8631:8707   */\n      swap2\n      swap1\n      pop\n      jump\t// out\n        /* \"#utility.yul\":8713:8833   */\n    tag_122:\n        /* \"#utility.yul\":8785:8808   */\n      tag_211\n        /* \"#utility.yul\":8802:8807   */\n      dup2\n        /* \"#utility.yul\":8785:8808   */\n      tag_121\n      jump\t// in\n    tag_211:\n        /* \"#utility.yul\":8778:8783   */\n      dup2\n        /* \"#utility.yul\":8775:8809   */\n      eq\n        /* \"#utility.yul\":8765:8827   */\n      tag_212\n      jumpi\n        /* \"#utility.yul\":8823:8824   */\n      0x00\n        /* \"#utility.yul\":8820:8821   */\n      dup1\n        /* \"#utility.yul\":8813:8825   */\n      revert\n        /* \"#utility.yul\":8765:8827   */\n    tag_212:\n        /* \"#utility.yul\":8713:8833   */\n      pop\n      jump\t// out\n        /* \"#utility.yul\":8839:8980   */\n    tag_123:\n        /* \"#utility.yul\":8895:8900   */\n      0x00\n        /* \"#utility.yul\":8926:8932   */\n      dup2\n        /* \"#utility.yul\":8920:8933   */\n      mload\n        /* \"#utility.yul\":8911:8933   */\n      swap1\n      pop\n        /* \"#utility.yul\":8942:8974   */\n      tag_214\n        /* \"#utility.yul\":8968:8973   */\n      dup2\n        /* \"#utility.yul\":8942:8974   */\n      tag_122\n      jump\t// in\n    tag_214:\n        /* \"#utility.yul\":8839:8980   */\n      swap3\n      swap2\n      pop\n      pop\n      jump\t// out\n        /* \"#utility.yul\":8986:9129   */\n    tag_124:\n        /* \"#utility.yul\":9043:9048   */\n      0x00\n        /* \"#utility.yul\":9074:9080   */\n      dup2\n        /* \"#utility.yul\":9068:9081   */\n      mload\n        /* \"#utility.yul\":9059:9081   */\n      swap1\n      pop\n        /* \"#utility.yul\":9090:9123   */\n      tag_216\n        /* \"#utility.yul\":9117:9122   */\n      dup2\n        /* \"#utility.yul\":9090:9123   */\n      tag_104\n      jump\t// in\n    tag_216:\n        /* \"#utility.yul\":8986:9129   */\n      swap3\n      swap2\n      pop\n      pop\n      jump\t// out\n        /* \"#utility.yul\":9135:10106   */\n    tag_84:\n        /* \"#utility.yul\":9238:9244   */\n      0x00\n        /* \"#utility.yul\":9246:9252   */\n      dup1\n        /* \"#utility.yul\":9254:9260   */\n      0x00\n        /* \"#utility.yul\":9262:9268   */\n      dup1\n        /* \"#utility.yul\":9270:9276   */\n      0x00\n        /* \"#utility.yul\":9319:9322   */\n      0xa0\n        /* \"#utility.yul\":9307:9316   */\n      dup7\n        /* \"#utility.yul\":9298:9305   */\n      dup9\n        /* \"#utility.yul\":9294:9317   */\n      sub\n        /* \"#utility.yul\":9290:9323   */\n      slt\n        /* \"#utility.yul\":9287:9407   */\n      iszero\n      tag_218\n      jumpi\n        /* \"#utility.yul\":9326:9405   */\n      tag_219\n      tag_97\n      jump\t// in\n    tag_219:\n        /* \"#utility.yul\":9287:9407   */\n    tag_218:\n        /* \"#utility.yul\":9446:9447   */\n      0x00\n        /* \"#utility.yul\":9471:9534   */\n      tag_220\n        /* \"#utility.yul\":9526:9533   */\n      dup9\n        /* \"#utility.yul\":9517:9523   */\n      dup3\n        /* \"#utility.yul\":9506:9515   */\n      dup10\n        /* \"#utility.yul\":9502:9524   */\n      add\n        /* \"#utility.yul\":9471:9534   */\n      tag_120\n      jump\t// in\n    tag_220:\n        /* \"#utility.yul\":9461:9534   */\n      swap6\n      pop\n        /* \"#utility.yul\":9417:9544   */\n      pop\n        /* \"#utility.yul\":9583:9585   */\n      0x20\n        /* \"#utility.yul\":9609:9672   */\n      tag_221\n        /* \"#utility.yul\":9664:9671   */\n      dup9\n        /* \"#utility.yul\":9655:9661   */\n      dup3\n        /* \"#utility.yul\":9644:9653   */\n      dup10\n        /* \"#utility.yul\":9640:9662   */\n      add\n        /* \"#utility.yul\":9609:9672   */\n      tag_123\n      jump\t// in\n    tag_221:\n        /* \"#utility.yul\":9599:9672   */\n      swap5\n      pop\n        /* \"#utility.yul\":9554:9682   */\n      pop\n        /* \"#utility.yul\":9721:9723   */\n      0x40\n        /* \"#utility.yul\":9747:9811   */\n      tag_222\n        /* \"#utility.yul\":9803:9810   */\n      dup9\n        /* \"#utility.yul\":9794:9800   */\n      dup3\n        /* \"#utility.yul\":9783:9792   */\n      dup10\n        /* \"#utility.yul\":9779:9801   */\n      add\n        /* \"#utility.yul\":9747:9811   */\n      tag_124\n      jump\t// in\n    tag_222:\n        /* \"#utility.yul\":9737:9811   */\n      swap4\n      pop\n        /* \"#utility.yul\":9692:9821   */\n      pop\n        /* \"#utility.yul\":9860:9862   */\n      0x60\n        /* \"#utility.yul\":9886:9950   */\n      tag_223\n        /* \"#utility.yul\":9942:9949   */\n      dup9\n        /* \"#utility.yul\":9933:9939   */\n      dup3\n        /* \"#utility.yul\":9922:9931   */\n      dup10\n        /* \"#utility.yul\":9918:9940   */\n      add\n        /* \"#utility.yul\":9886:9950   */\n      tag_124\n      jump\t// in\n    tag_223:\n        /* \"#utility.yul\":9876:9950   */\n      swap3\n      pop\n        /* \"#utility.yul\":9831:9960   */\n      pop\n        /* \"#utility.yul\":9999:10002   */\n      0x80\n        /* \"#utility.yul\":10026:10089   */\n      tag_224\n        /* \"#utility.yul\":10081:10088   */\n      dup9\n        /* \"#utility.yul\":10072:10078   */\n      dup3\n        /* \"#utility.yul\":10061:10070   */\n      dup10\n        /* \"#utility.yul\":10057:10079   */\n      add\n        /* \"#utility.yul\":10026:10089   */\n      tag_120\n      jump\t// in\n    tag_224:\n        /* \"#utility.yul\":10016:10089   */\n      swap2\n      pop\n        /* \"#utility.yul\":9970:10099   */\n      pop\n        /* \"#utility.yul\":9135:10106   */\n      swap3\n      swap6\n      pop\n      swap3\n      swap6\n      swap1\n      swap4\n      pop\n      jump\t// out\n        /* \"#utility.yul\":10112:11103   */\n    tag_86:\n        /* \"#utility.yul\":10151:10158   */\n      0x00\n        /* \"#utility.yul\":10174:10193   */\n      tag_226\n        /* \"#utility.yul\":10191:10192   */\n      dup3\n        /* \"#utility.yul\":10174:10193   */\n      tag_121\n      jump\t// in\n    tag_226:\n        /* \"#utility.yul\":10169:10193   */\n      swap2\n      pop\n        /* \"#utility.yul\":10207:10226   */\n      tag_227\n        /* \"#utility.yul\":10224:10225   */\n      dup4\n        /* \"#utility.yul\":10207:10226   */\n      tag_121\n      jump\t// in\n    tag_227:\n        /* \"#utility.yul\":10202:10226   */\n      swap3\n      pop\n        /* \"#utility.yul\":10408:10409   */\n      dup3\n        /* \"#utility.yul\":10340:10406   */\n      0x7fffffffffffffffffffffffffffffffffffffffffffffffffffffffffffffff\n        /* \"#utility.yul\":10336:10410   */\n      div\n        /* \"#utility.yul\":10333:10334   */\n      dup3\n        /* \"#utility.yul\":10330:10411   */\n      gt\n        /* \"#utility.yul\":10325:10326   */\n      0x00\n        /* \"#utility.yul\":10322:10323   */\n      dup5\n        /* \"#utility.yul\":10318:10327   */\n      sgt\n        /* \"#utility.yul\":10314:10315   */\n      0x00\n        /* \"#utility.yul\":10311:10312   */\n      dup5\n        /* \"#utility.yul\":10307:10316   */\n      sgt\n        /* \"#utility.yul\":10303:10328   */\n      and\n        /* \"#utility.yul\":10299:10412   */\n      and\n        /* \"#utility.yul\":10296:10435   */\n      iszero\n      tag_228\n      jumpi\n        /* \"#utility.yul\":10415:10433   */\n      tag_229\n      tag_109\n      jump\t// in\n    tag_229:\n        /* \"#utility.yul\":10296:10435   */\n    tag_228:\n        /* \"#utility.yul\":10619:10620   */\n      dup2\n        /* \"#utility.yul\":10551:10617   */\n      0x8000000000000000000000000000000000000000000000000000000000000000\n        /* \"#utility.yul\":10546:10621   */\n      sdiv\n        /* \"#utility.yul\":10543:10544   */\n      dup4\n        /* \"#utility.yul\":10539:10622   */\n      slt\n        /* \"#utility.yul\":10534:10535   */\n      0x00\n        /* \"#utility.yul\":10531:10532   */\n      dup5\n        /* \"#utility.yul\":10527:10536   */\n      slt\n        /* \"#utility.yul\":10523:10524   */\n      0x00\n        /* \"#utility.yul\":10520:10521   */\n      dup5\n        /* \"#utility.yul\":10516:10525   */\n      sgt\n        /* \"#utility.yul\":10512:10537   */\n      and\n        /* \"#utility.yul\":10508:10623   */\n      and\n        /* \"#utility.yul\":10505:10646   */\n      iszero\n      tag_230\n      jumpi\n        /* \"#utility.yul\":10626:10644   */\n      tag_231\n      tag_109\n      jump\t// in\n    tag_231:\n        /* \"#utility.yul\":10505:10646   */\n    tag_230:\n        /* \"#utility.yul\":10830:10831   */\n      dup3\n        /* \"#utility.yul\":10762:10828   */\n      0x8000000000000000000000000000000000000000000000000000000000000000\n        /* \"#utility.yul\":10757:10832   */\n      sdiv\n        /* \"#utility.yul\":10754:10755   */\n      dup3\n        /* \"#utility.yul\":10750:10833   */\n      slt\n        /* \"#utility.yul\":10745:10746   */\n      0x00\n        /* \"#utility.yul\":10742:10743   */\n      dup5\n        /* \"#utility.yul\":10738:10747   */\n      sgt\n        /* \"#utility.yul\":10734:10735   */\n      0x00\n        /* \"#utility.yul\":10731:10732   */\n      dup5\n        /* \"#utility.yul\":10727:10736   */\n      slt\n        /* \"#utility.yul\":10723:10748   */\n      and\n        /* \"#utility.yul\":10719:10834   */\n      and\n        /* \"#utility.yul\":10716:10857   */\n      iszero\n      tag_232\n      jumpi\n        /* \"#utility.yul\":10837:10855   */\n      tag_233\n      tag_109\n      jump\t// in\n    tag_233:\n        /* \"#utility.yul\":10716:10857   */\n    tag_232:\n        /* \"#utility.yul\":11040:11041   */\n      dup3\n        /* \"#utility.yul\":10972:11038   */\n      0x7fffffffffffffffffffffffffffffffffffffffffffffffffffffffffffffff\n        /* \"#utility.yul\":10967:11042   */\n      sdiv\n        /* \"#utility.yul\":10964:10965   */\n      dup3\n        /* \"#utility.yul\":10960:11043   */\n      slt\n        /* \"#utility.yul\":10955:10956   */\n      0x00\n        /* \"#utility.yul\":10952:10953   */\n      dup5\n        /* \"#utility.yul\":10948:10957   */\n      slt\n        /* \"#utility.yul\":10944:10945   */\n      0x00\n        /* \"#utility.yul\":10941:10942   */\n      dup5\n        /* \"#utility.yul\":10937:10946   */\n      slt\n        /* \"#utility.yul\":10933:10958   */\n      and\n        /* \"#utility.yul\":10929:11044   */\n      and\n        /* \"#utility.yul\":10926:11067   */\n      iszero\n      tag_234\n      jumpi\n        /* \"#utility.yul\":11047:11065   */\n      tag_235\n      tag_109\n      jump\t// in\n    tag_235:\n        /* \"#utility.yul\":10926:11067   */\n    tag_234:\n        /* \"#utility.yul\":11095:11096   */\n      dup3\n        /* \"#utility.yul\":11092:11093   */\n      dup3\n        /* \"#utility.yul\":11088:11097   */\n      mul\n        /* \"#utility.yul\":11077:11097   */\n      swap1\n      pop\n        /* \"#utility.yul\":10112:11103   */\n      swap3\n      swap2\n      pop\n      pop\n      jump\t// out\n\n    auxdata: 0xa2646970667358221220c10e199610e2890a293372d502606cb4d437da59267e4f54cca43e01826f855764736f6c63430008080033\n}\n",
				"bytecode": {
					"linkReferences": {},
					"object": "60806040526802b5e3af16b188000060005534801561001d57600080fd5b5033600360006101000a81548173ffffffffffffffffffffffffffffffffffffffff021916908373ffffffffffffffffffffffffffffffffffffffff160217905550610d658061006e6000396000f3fe6080604052600436106100555760003560e01c8063098de8201461005a5780633ccfd60b146100855780633e47d6f31461009c5780638da5cb5b146100d9578063b60d428814610104578063d8e75f621461010e575b600080fd5b34801561006657600080fd5b5061006f61014b565b60405161007c91906106b7565b60405180910390f35b34801561009157600080fd5b5061009a610151565b005b3480156100a857600080fd5b506100c360048036038101906100be9190610735565b61039d565b6040516100d091906106b7565b60405180910390f35b3480156100e557600080fd5b506100ee6103b5565b6040516100fb9190610771565b60405180910390f35b61010c6103db565b005b34801561011a57600080fd5b50610135600480360381019061013091906107b8565b6104d1565b6040516101429190610771565b60405180910390f35b60005481565b600360009054906101000a900473ffffffffffffffffffffffffffffffffffffffff1673ffffffffffffffffffffffffffffffffffffffff163373ffffffffffffffffffffffffffffffffffffffff16146101e1576040517f08c379a00000000000000000000000000000000000000000000000000000000081526004016101d890610842565b60405180910390fd5b60005b60018054905081101561028d5760006001828154811061020757610206610862565b5b9060005260206000200160009054906101000a900473ffffffffffffffffffffffffffffffffffffffff1690506000600260008373ffffffffffffffffffffffffffffffffffffffff1673ffffffffffffffffffffffffffffffffffffffff16815260200190815260200160002081905550508080610285906108c0565b9150506101e4565b50600067ffffffffffffffff8111156102a9576102a8610909565b5b6040519080825280602002602001820160405280156102d75781602001602082028036833780820191505090505b50600190805190602001906102ed9291906105f7565b5060003373ffffffffffffffffffffffffffffffffffffffff164760405161031490610969565b60006040518083038185875af1925050503d8060008114610351576040519150601f19603f3d011682016040523d82523d6000602084013e610356565b606091505b505090508061039a576040517f08c379a0000000000000000000000000000000000000000000000000000000008152600401610391906109ca565b60405180910390fd5b50565b60026020528060005260406000206000915090505481565b600360009054906101000a900473ffffffffffffffffffffffffffffffffffffffff1681565b6000546103e734610510565b1015610428576040517f08c379a000000000000000000000000000000000000000000000000000000000815260040161041f90610a36565b60405180910390fd5b6001339080600181540180825580915050600190039060005260206000200160009091909190916101000a81548173ffffffffffffffffffffffffffffffffffffffff021916908373ffffffffffffffffffffffffffffffffffffffff16021790555034600260003373ffffffffffffffffffffffffffffffffffffffff1673ffffffffffffffffffffffffffffffffffffffff16815260200190815260200160002081905550565b600181815481106104e157600080fd5b906000526020600020016000915054906101000a900473ffffffffffffffffffffffffffffffffffffffff1681565b6000670de0b6b3a764000061052361053f565b8361052e9190610a56565b6105389190610adf565b9050919050565b600080738a753747a1fa494ec906ce90e9f37563a8af630e905060008173ffffffffffffffffffffffffffffffffffffffff1663feaf968c6040518163ffffffff1660e01b815260040160a06040518083038186803b1580156105a157600080fd5b505afa1580156105b5573d6000803e3d6000fd5b505050506040513d601f19601f820116820180604052508101906105d99190610b9d565b5050509150506402540be400816105f09190610c18565b9250505090565b828054828255906000526020600020908101928215610670579160200282015b8281111561066f5782518260006101000a81548173ffffffffffffffffffffffffffffffffffffffff021916908373ffffffffffffffffffffffffffffffffffffffff16021790555091602001919060010190610617565b5b50905061067d9190610681565b5090565b5b8082111561069a576000816000905550600101610682565b5090565b6000819050919050565b6106b18161069e565b82525050565b60006020820190506106cc60008301846106a8565b92915050565b600080fd5b600073ffffffffffffffffffffffffffffffffffffffff82169050919050565b6000610702826106d7565b9050919050565b610712816106f7565b811461071d57600080fd5b50565b60008135905061072f81610709565b92915050565b60006020828403121561074b5761074a6106d2565b5b600061075984828501610720565b91505092915050565b61076b816106f7565b82525050565b60006020820190506107866000830184610762565b92915050565b6107958161069e565b81146107a057600080fd5b50565b6000813590506107b28161078c565b92915050565b6000602082840312156107ce576107cd6106d2565b5b60006107dc848285016107a3565b91505092915050565b600082825260208201905092915050565b7f73656e646572206973206e6f7420746865206f776e6572210000000000000000600082015250565b600061082c6018836107e5565b9150610837826107f6565b602082019050919050565b6000602082019050818103600083015261085b8161081f565b9050919050565b7f4e487b7100000000000000000000000000000000000000000000000000000000600052603260045260246000fd5b7f4e487b7100000000000000000000000000000000000000000000000000000000600052601160045260246000fd5b60006108cb8261069e565b91507fffffffffffffffffffffffffffffffffffffffffffffffffffffffffffffffff8214156108fe576108fd610891565b5b600182019050919050565b7f4e487b7100000000000000000000000000000000000000000000000000000000600052604160045260246000fd5b600081905092915050565b50565b6000610953600083610938565b915061095e82610943565b600082019050919050565b600061097482610946565b9150819050919050565b7f63616c6c206661696c6564210000000000000000000000000000000000000000600082015250565b60006109b4600c836107e5565b91506109bf8261097e565b602082019050919050565b600060208201905081810360008301526109e3816109a7565b9050919050565b7f6e6f7420656e6f7567682073656e742100000000000000000000000000000000600082015250565b6000610a206010836107e5565b9150610a2b826109ea565b602082019050919050565b60006020820190508181036000830152610a4f81610a13565b9050919050565b6000610a618261069e565b9150610a6c8361069e565b9250817fffffffffffffffffffffffffffffffffffffffffffffffffffffffffffffffff0483118215151615610aa557610aa4610891565b5b828202905092915050565b7f4e487b7100000000000000000000000000000000000000000000000000000000600052601260045260246000fd5b6000610aea8261069e565b9150610af58361069e565b925082610b0557610b04610ab0565b5b828204905092915050565b600069ffffffffffffffffffff82169050919050565b610b2f81610b10565b8114610b3a57600080fd5b50565b600081519050610b4c81610b26565b92915050565b6000819050919050565b610b6581610b52565b8114610b7057600080fd5b50565b600081519050610b8281610b5c565b92915050565b600081519050610b978161078c565b92915050565b600080600080600060a08688031215610bb957610bb86106d2565b5b6000610bc788828901610b3d565b9550506020610bd888828901610b73565b9450506040610be988828901610b88565b9350506060610bfa88828901610b88565b9250506080610c0b88828901610b3d565b9150509295509295909350565b6000610c2382610b52565b9150610c2e83610b52565b9250827f7fffffffffffffffffffffffffffffffffffffffffffffffffffffffffffffff0482116000841360008413161615610c6d57610c6c610891565b5b817f80000000000000000000000000000000000000000000000000000000000000000583126000841260008413161615610caa57610ca9610891565b5b827f80000000000000000000000000000000000000000000000000000000000000000582126000841360008412161615610ce757610ce6610891565b5b827f7fffffffffffffffffffffffffffffffffffffffffffffffffffffffffffffff0582126000841260008412161615610d2457610d23610891565b5b82820290509291505056fea2646970667358221220c10e199610e2890a293372d502606cb4d437da59267e4f54cca43e01826f855764736f6c63430008080033",
					"opcodes": "PUSH1 0x80 PUSH1 0x40 MSTORE PUSH9 0x2B5E3AF16B1880000 PUSH1 0x0 SSTORE CALLVALUE DUP1 ISZERO PUSH2 0x1D JUMPI PUSH1 0x0 DUP1 REVERT JUMPDEST POP CALLER PUSH1 0x3 PUSH1 0x0 PUSH2 0x100 EXP DUP2 SLOAD DUP2 PUSH20 0xFFFFFFFFFFFFFFFFFFFFFFFFFFFFFFFFFFFFFFFF MUL NOT AND SWAP1 DUP4 PUSH20 0xFFFFFFFFFFFFFFFFFFFFFFFFFFFFFFFFFFFFFFFF AND MUL OR SWAP1 SSTORE POP PUSH2 0xD65 DUP1 PUSH2 0x6E PUSH1 0x0 CODECOPY PUSH1 0x0 RETURN INVALID PUSH1 0x80 PUSH1 0x40 MSTORE PUSH1 0x4 CALLDATASIZE LT PUSH2 0x55 JUMPI PUSH1 0x0 CALLDATALOAD PUSH1 0xE0 SHR DUP1 PUSH4 0x98DE820 EQ PUSH2 0x5A JUMPI DUP1 PUSH4 0x3CCFD60B EQ PUSH2 0x85 JUMPI DUP1 PUSH4 0x3E47D6F3 EQ PUSH2 0x9C JUMPI DUP1 PUSH4 0x8DA5CB5B EQ PUSH2 0xD9 JUMPI DUP1 PUSH4 0xB60D4288 EQ PUSH2 0x104 JUMPI DUP1 PUSH4 0xD8E75F62 EQ PUSH2 0x10E JUMPI JUMPDEST PUSH1 0x0 DUP1 REVERT JUMPDEST CALLVALUE DUP1 ISZERO PUSH2 0x66 JUMPI PUSH1 0x0 DUP1 REVERT JUMPDEST POP PUSH2 0x6F PUSH2 0x14B JUMP JUMPDEST PUSH1 0x40 MLOAD PUSH2 0x7C SWAP2 SWAP1 PUSH2 0x6B7 JUMP JUMPDEST PUSH1 0x40 MLOAD DUP1 SWAP2 SUB SWAP1 RETURN JUMPDEST CALLVALUE DUP1 ISZERO PUSH2 0x91 JUMPI PUSH1 0x0 DUP1 REVERT JUMPDEST POP PUSH2 0x9A PUSH2 0x151 JUMP JUMPDEST STOP JUMPDEST CALLVALUE DUP1 ISZERO PUSH2 0xA8 JUMPI PUSH1 0x0 DUP1 REVERT JUMPDEST POP PUSH2 0xC3 PUSH1 0x4 DUP1 CALLDATASIZE SUB DUP2 ADD SWAP1 PUSH2 0xBE SWAP2 SWAP1 PUSH2 0x735 JUMP JUMPDEST PUSH2 0x39D JUMP JUMPDEST PUSH1 0x40 MLOAD PUSH2 0xD0 SWAP2 SWAP1 PUSH2 0x6B7 JUMP JUMPDEST PUSH1 0x40 MLOAD DUP1 SWAP2 SUB SWAP1 RETURN JUMPDEST CALLVALUE DUP1 ISZERO PUSH2 0xE5 JUMPI PUSH1 0x0 DUP1 REVERT JUMPDEST POP PUSH2 0xEE PUSH2 0x3B5 JUMP JUMPDEST PUSH1 0x40 MLOAD PUSH2 0xFB SWAP2 SWAP1 PUSH2 0x771 JUMP JUMPDEST PUSH1 0x40 MLOAD DUP1 SWAP2 SUB SWAP1 RETURN JUMPDEST PUSH2 0x10C PUSH2 0x3DB JUMP JUMPDEST STOP JUMPDEST CALLVALUE DUP1 ISZERO PUSH2 0x11A JUMPI PUSH1 0x0 DUP1 REVERT JUMPDEST POP PUSH2 0x135 PUSH1 0x4 DUP1 CALLDATASIZE SUB DUP2 ADD SWAP1 PUSH2 0x130 SWAP2 SWAP1 PUSH2 0x7B8 JUMP JUMPDEST PUSH2 0x4D1 JUMP JUMPDEST PUSH1 0x40 MLOAD PUSH2 0x142 SWAP2 SWAP1 PUSH2 0x771 JUMP JUMPDEST PUSH1 0x40 MLOAD DUP1 SWAP2 SUB SWAP1 RETURN JUMPDEST PUSH1 0x0 SLOAD DUP2 JUMP JUMPDEST PUSH1 0x3 PUSH1 0x0 SWAP1 SLOAD SWAP1 PUSH2 0x100 EXP SWAP1 DIV PUSH20 0xFFFFFFFFFFFFFFFFFFFFFFFFFFFFFFFFFFFFFFFF AND PUSH20 0xFFFFFFFFFFFFFFFFFFFFFFFFFFFFFFFFFFFFFFFF AND CALLER PUSH20 0xFFFFFFFFFFFFFFFFFFFFFFFFFFFFFFFFFFFFFFFF AND EQ PUSH2 0x1E1 JUMPI PUSH1 0x40 MLOAD PUSH32 0x8C379A000000000000000000000000000000000000000000000000000000000 DUP2 MSTORE PUSH1 0x4 ADD PUSH2 0x1D8 SWAP1 PUSH2 0x842 JUMP JUMPDEST PUSH1 0x40 MLOAD DUP1 SWAP2 SUB SWAP1 REVERT JUMPDEST PUSH1 0x0 JUMPDEST PUSH1 0x1 DUP1 SLOAD SWAP1 POP DUP2 LT ISZERO PUSH2 0x28D JUMPI PUSH1 0x0 PUSH1 0x1 DUP3 DUP2 SLOAD DUP2 LT PUSH2 0x207 JUMPI PUSH2 0x206 PUSH2 0x862 JUMP JUMPDEST JUMPDEST SWAP1 PUSH1 0x0 MSTORE PUSH1 0x20 PUSH1 0x0 KECCAK256 ADD PUSH1 0x0 SWAP1 SLOAD SWAP1 PUSH2 0x100 EXP SWAP1 DIV PUSH20 0xFFFFFFFFFFFFFFFFFFFFFFFFFFFFFFFFFFFFFFFF AND SWAP1 POP PUSH1 0x0 PUSH1 0x2 PUSH1 0x0 DUP4 PUSH20 0xFFFFFFFFFFFFFFFFFFFFFFFFFFFFFFFFFFFFFFFF AND PUSH20 0xFFFFFFFFFFFFFFFFFFFFFFFFFFFFFFFFFFFFFFFF AND DUP2 MSTORE PUSH1 0x20 ADD SWAP1 DUP2 MSTORE PUSH1 0x20 ADD PUSH1 0x0 KECCAK256 DUP2 SWAP1 SSTORE POP POP DUP1 DUP1 PUSH2 0x285 SWAP1 PUSH2 0x8C0 JUMP JUMPDEST SWAP2 POP POP PUSH2 0x1E4 JUMP JUMPDEST POP PUSH1 0x0 PUSH8 0xFFFFFFFFFFFFFFFF DUP2 GT ISZERO PUSH2 0x2A9 JUMPI PUSH2 0x2A8 PUSH2 0x909 JUMP JUMPDEST JUMPDEST PUSH1 0x40 MLOAD SWAP1 DUP1 DUP3 MSTORE DUP1 PUSH1 0x20 MUL PUSH1 0x20 ADD DUP3 ADD PUSH1 0x40 MSTORE DUP1 ISZERO PUSH2 0x2D7 JUMPI DUP2 PUSH1 0x20 ADD PUSH1 0x20 DUP3 MUL DUP1 CALLDATASIZE DUP4 CALLDATACOPY DUP1 DUP3 ADD SWAP2 POP POP SWAP1 POP JUMPDEST POP PUSH1 0x1 SWAP1 DUP1 MLOAD SWAP1 PUSH1 0x20 ADD SWAP1 PUSH2 0x2ED SWAP3 SWAP2 SWAP1 PUSH2 0x5F7 JUMP JUMPDEST POP PUSH1 0x0 CALLER PUSH20 0xFFFFFFFFFFFFFFFFFFFFFFFFFFFFFFFFFFFFFFFF AND SELFBALANCE PUSH1 0x40 MLOAD PUSH2 0x314 SWAP1 PUSH2 0x969 JUMP JUMPDEST PUSH1 0x0 PUSH1 0x40 MLOAD DUP1 DUP4 SUB DUP2 DUP6 DUP8 GAS CALL SWAP3 POP POP POP RETURNDATASIZE DUP1 PUSH1 0x0 DUP2 EQ PUSH2 0x351 JUMPI PUSH1 0x40 MLOAD SWAP2 POP PUSH1 0x1F NOT PUSH1 0x3F RETURNDATASIZE ADD AND DUP3 ADD PUSH1 0x40 MSTORE RETURNDATASIZE DUP3 MSTORE RETURNDATASIZE PUSH1 0x0 PUSH1 0x20 DUP5 ADD RETURNDATACOPY PUSH2 0x356 JUMP JUMPDEST PUSH1 0x60 SWAP2 POP JUMPDEST POP POP SWAP1 POP DUP1 PUSH2 0x39A JUMPI PUSH1 0x40 MLOAD PUSH32 0x8C379A000000000000000000000000000000000000000000000000000000000 DUP2 MSTORE PUSH1 0x4 ADD PUSH2 0x391 SWAP1 PUSH2 0x9CA JUMP JUMPDEST PUSH1 0x40 MLOAD DUP1 SWAP2 SUB SWAP1 REVERT JUMPDEST POP JUMP JUMPDEST PUSH1 0x2 PUSH1 0x20 MSTORE DUP1 PUSH1 0x0 MSTORE PUSH1 0x40 PUSH1 0x0 KECCAK256 PUSH1 0x0 SWAP2 POP SWAP1 POP SLOAD DUP2 JUMP JUMPDEST PUSH1 0x3 PUSH1 0x0 SWAP1 SLOAD SWAP1 PUSH2 0x100 EXP SWAP1 DIV PUSH20 0xFFFFFFFFFFFFFFFFFFFFFFFFFFFFFFFFFFFFFFFF AND DUP2 JUMP JUMPDEST PUSH1 0x0 SLOAD PUSH2 0x3E7 CALLVALUE PUSH2 0x510 JUMP JUMPDEST LT ISZERO PUSH2 0x428 JUMPI PUSH1 0x40 MLOAD PUSH32 0x8C379A000000000000000000000000000000000000000000000000000000000 DUP2 MSTORE PUSH1 0x4 ADD PUSH2 0x41F SWAP1 PUSH2 0xA36 JUMP JUMPDEST PUSH1 0x40 MLOAD DUP1 SWAP2 SUB SWAP1 REVERT JUMPDEST PUSH1 0x1 CALLER SWAP1 DUP1 PUSH1 0x1 DUP2 SLOAD ADD DUP1 DUP3 SSTORE DUP1 SWAP2 POP POP PUSH1 0x1 SWAP1 SUB SWAP1 PUSH1 0x0 MSTORE PUSH1 0x20 PUSH1 0x0 KECCAK256 ADD PUSH1 0x0 SWAP1 SWAP2 SWAP1 SWAP2 SWAP1 SWAP2 PUSH2 0x100 EXP DUP2 SLOAD DUP2 PUSH20 0xFFFFFFFFFFFFFFFFFFFFFFFFFFFFFFFFFFFFFFFF MUL NOT AND SWAP1 DUP4 PUSH20 0xFFFFFFFFFFFFFFFFFFFFFFFFFFFFFFFFFFFFFFFF AND MUL OR SWAP1 SSTORE POP CALLVALUE PUSH1 0x2 PUSH1 0x0 CALLER PUSH20 0xFFFFFFFFFFFFFFFFFFFFFFFFFFFFFFFFFFFFFFFF AND PUSH20 0xFFFFFFFFFFFFFFFFFFFFFFFFFFFFFFFFFFFFFFFF AND DUP2 MSTORE PUSH1 0x20 ADD SWAP1 DUP2 MSTORE PUSH1 0x20 ADD PUSH1 0x0 KECCAK256 DUP2 SWAP1 SSTORE POP JUMP JUMPDEST PUSH1 0x1 DUP2 DUP2 SLOAD DUP2 LT PUSH2 0x4E1 JUMPI PUSH1 0x0 DUP1 REVERT JUMPDEST SWAP1 PUSH1 0x0 MSTORE PUSH1 0x20 PUSH1 0x0 KECCAK256 ADD PUSH1 0x0 SWAP2 POP SLOAD SWAP1 PUSH2 0x100 EXP SWAP1 DIV PUSH20 0xFFFFFFFFFFFFFFFFFFFFFFFFFFFFFFFFFFFFFFFF AND DUP2 JUMP JUMPDEST PUSH1 0x0 PUSH8 0xDE0B6B3A7640000 PUSH2 0x523 PUSH2 0x53F JUMP JUMPDEST DUP4 PUSH2 0x52E SWAP2 SWAP1 PUSH2 0xA56 JUMP JUMPDEST PUSH2 0x538 SWAP2 SWAP1 PUSH2 0xADF JUMP JUMPDEST SWAP1 POP SWAP2 SWAP1 POP JUMP JUMPDEST PUSH1 0x0 DUP1 PUSH20 0x8A753747A1FA494EC906CE90E9F37563A8AF630E SWAP1 POP PUSH1 0x0 DUP2 PUSH20 0xFFFFFFFFFFFFFFFFFFFFFFFFFFFFFFFFFFFFFFFF AND PUSH4 0xFEAF968C PUSH1 0x40 MLOAD DUP2 PUSH4 0xFFFFFFFF AND PUSH1 0xE0 SHL DUP2 MSTORE PUSH1 0x4 ADD PUSH1 0xA0 PUSH1 0x40 MLOAD DUP1 DUP4 SUB DUP2 DUP7 DUP1 EXTCODESIZE ISZERO DUP1 ISZERO PUSH2 0x5A1 JUMPI PUSH1 0x0 DUP1 REVERT JUMPDEST POP GAS STATICCALL ISZERO DUP1 ISZERO PUSH2 0x5B5 JUMPI RETURNDATASIZE PUSH1 0x0 DUP1 RETURNDATACOPY RETURNDATASIZE PUSH1 0x0 REVERT JUMPDEST POP POP POP POP PUSH1 0x40 MLOAD RETURNDATASIZE PUSH1 0x1F NOT PUSH1 0x1F DUP3 ADD AND DUP3 ADD DUP1 PUSH1 0x40 MSTORE POP DUP2 ADD SWAP1 PUSH2 0x5D9 SWAP2 SWAP1 PUSH2 0xB9D JUMP JUMPDEST POP POP POP SWAP2 POP POP PUSH5 0x2540BE400 DUP2 PUSH2 0x5F0 SWAP2 SWAP1 PUSH2 0xC18 JUMP JUMPDEST SWAP3 POP POP POP SWAP1 JUMP JUMPDEST DUP3 DUP1 SLOAD DUP3 DUP3 SSTORE SWAP1 PUSH1 0x0 MSTORE PUSH1 0x20 PUSH1 0x0 KECCAK256 SWAP1 DUP2 ADD SWAP3 DUP3 ISZERO PUSH2 0x670 JUMPI SWAP2 PUSH1 0x20 MUL DUP3 ADD JUMPDEST DUP3 DUP2 GT ISZERO PUSH2 0x66F JUMPI DUP3 MLOAD DUP3 PUSH1 0x0 PUSH2 0x100 EXP DUP2 SLOAD DUP2 PUSH20 0xFFFFFFFFFFFFFFFFFFFFFFFFFFFFFFFFFFFFFFFF MUL NOT AND SWAP1 DUP4 PUSH20 0xFFFFFFFFFFFFFFFFFFFFFFFFFFFFFFFFFFFFFFFF AND MUL OR SWAP1 SSTORE POP SWAP2 PUSH1 0x20 ADD SWAP2 SWAP1 PUSH1 0x1 ADD SWAP1 PUSH2 0x617 JUMP JUMPDEST JUMPDEST POP SWAP1 POP PUSH2 0x67D SWAP2 SWAP1 PUSH2 0x681 JUMP JUMPDEST POP SWAP1 JUMP JUMPDEST JUMPDEST DUP1 DUP3 GT ISZERO PUSH2 0x69A JUMPI PUSH1 0x0 DUP2 PUSH1 0x0 SWAP1 SSTORE POP PUSH1 0x1 ADD PUSH2 0x682 JUMP JUMPDEST POP SWAP1 JUMP JUMPDEST PUSH1 0x0 DUP2 SWAP1 POP SWAP2 SWAP1 POP JUMP JUMPDEST PUSH2 0x6B1 DUP2 PUSH2 0x69E JUMP JUMPDEST DUP3 MSTORE POP POP JUMP JUMPDEST PUSH1 0x0 PUSH1 0x20 DUP3 ADD SWAP1 POP PUSH2 0x6CC PUSH1 0x0 DUP4 ADD DUP5 PUSH2 0x6A8 JUMP JUMPDEST SWAP3 SWAP2 POP POP JUMP JUMPDEST PUSH1 0x0 DUP1 REVERT JUMPDEST PUSH1 0x0 PUSH20 0xFFFFFFFFFFFFFFFFFFFFFFFFFFFFFFFFFFFFFFFF DUP3 AND SWAP1 POP SWAP2 SWAP1 POP JUMP JUMPDEST PUSH1 0x0 PUSH2 0x702 DUP3 PUSH2 0x6D7 JUMP JUMPDEST SWAP1 POP SWAP2 SWAP1 POP JUMP JUMPDEST PUSH2 0x712 DUP2 PUSH2 0x6F7 JUMP JUMPDEST DUP2 EQ PUSH2 0x71D JUMPI PUSH1 0x0 DUP1 REVERT JUMPDEST POP JUMP JUMPDEST PUSH1 0x0 DUP2 CALLDATALOAD SWAP1 POP PUSH2 0x72F DUP2 PUSH2 0x709 JUMP JUMPDEST SWAP3 SWAP2 POP POP JUMP JUMPDEST PUSH1 0x0 PUSH1 0x20 DUP3 DUP5 SUB SLT ISZERO PUSH2 0x74B JUMPI PUSH2 0x74A PUSH2 0x6D2 JUMP JUMPDEST JUMPDEST PUSH1 0x0 PUSH2 0x759 DUP5 DUP3 DUP6 ADD PUSH2 0x720 JUMP JUMPDEST SWAP2 POP POP SWAP3 SWAP2 POP POP JUMP JUMPDEST PUSH2 0x76B DUP2 PUSH2 0x6F7 JUMP JUMPDEST DUP3 MSTORE POP POP JUMP JUMPDEST PUSH1 0x0 PUSH1 0x20 DUP3 ADD SWAP1 POP PUSH2 0x786 PUSH1 0x0 DUP4 ADD DUP5 PUSH2 0x762 JUMP JUMPDEST SWAP3 SWAP2 POP POP JUMP JUMPDEST PUSH2 0x795 DUP2 PUSH2 0x69E JUMP JUMPDEST DUP2 EQ PUSH2 0x7A0 JUMPI PUSH1 0x0 DUP1 REVERT JUMPDEST POP JUMP JUMPDEST PUSH1 0x0 DUP2 CALLDATALOAD SWAP1 POP PUSH2 0x7B2 DUP2 PUSH2 0x78C JUMP JUMPDEST SWAP3 SWAP2 POP POP JUMP JUMPDEST PUSH1 0x0 PUSH1 0x20 DUP3 DUP5 SUB SLT ISZERO PUSH2 0x7CE JUMPI PUSH2 0x7CD PUSH2 0x6D2 JUMP JUMPDEST JUMPDEST PUSH1 0x0 PUSH2 0x7DC DUP5 DUP3 DUP6 ADD PUSH2 0x7A3 JUMP JUMPDEST SWAP2 POP POP SWAP3 SWAP2 POP POP JUMP JUMPDEST PUSH1 0x0 DUP3 DUP3 MSTORE PUSH1 0x20 DUP3 ADD SWAP1 POP SWAP3 SWAP2 POP POP JUMP JUMPDEST PUSH32 0x73656E646572206973206E6F7420746865206F776E6572210000000000000000 PUSH1 0x0 DUP3 ADD MSTORE POP JUMP JUMPDEST PUSH1 0x0 PUSH2 0x82C PUSH1 0x18 DUP4 PUSH2 0x7E5 JUMP JUMPDEST SWAP2 POP PUSH2 0x837 DUP3 PUSH2 0x7F6 JUMP JUMPDEST PUSH1 0x20 DUP3 ADD SWAP1 POP SWAP2 SWAP1 POP JUMP JUMPDEST PUSH1 0x0 PUSH1 0x20 DUP3 ADD SWAP1 POP DUP2 DUP2 SUB PUSH1 0x0 DUP4 ADD MSTORE PUSH2 0x85B DUP2 PUSH2 0x81F JUMP JUMPDEST SWAP1 POP SWAP2 SWAP1 POP JUMP JUMPDEST PUSH32 0x4E487B7100000000000000000000000000000000000000000000000000000000 PUSH1 0x0 MSTORE PUSH1 0x32 PUSH1 0x4 MSTORE PUSH1 0x24 PUSH1 0x0 REVERT JUMPDEST PUSH32 0x4E487B7100000000000000000000000000000000000000000000000000000000 PUSH1 0x0 MSTORE PUSH1 0x11 PUSH1 0x4 MSTORE PUSH1 0x24 PUSH1 0x0 REVERT JUMPDEST PUSH1 0x0 PUSH2 0x8CB DUP3 PUSH2 0x69E JUMP JUMPDEST SWAP2 POP PUSH32 0xFFFFFFFFFFFFFFFFFFFFFFFFFFFFFFFFFFFFFFFFFFFFFFFFFFFFFFFFFFFFFFFF DUP3 EQ ISZERO PUSH2 0x8FE JUMPI PUSH2 0x8FD PUSH2 0x891 JUMP JUMPDEST JUMPDEST PUSH1 0x1 DUP3 ADD SWAP1 POP SWAP2 SWAP1 POP JUMP JUMPDEST PUSH32 0x4E487B7100000000000000000000000000000000000000000000000000000000 PUSH1 0x0 MSTORE PUSH1 0x41 PUSH1 0x4 MSTORE PUSH1 0x24 PUSH1 0x0 REVERT JUMPDEST PUSH1 0x0 DUP2 SWAP1 POP SWAP3 SWAP2 POP POP JUMP JUMPDEST POP JUMP JUMPDEST PUSH1 0x0 PUSH2 0x953 PUSH1 0x0 DUP4 PUSH2 0x938 JUMP JUMPDEST SWAP2 POP PUSH2 0x95E DUP3 PUSH2 0x943 JUMP JUMPDEST PUSH1 0x0 DUP3 ADD SWAP1 POP SWAP2 SWAP1 POP JUMP JUMPDEST PUSH1 0x0 PUSH2 0x974 DUP3 PUSH2 0x946 JUMP JUMPDEST SWAP2 POP DUP2 SWAP1 POP SWAP2 SWAP1 POP JUMP JUMPDEST PUSH32 0x63616C6C206661696C6564210000000000000000000000000000000000000000 PUSH1 0x0 DUP3 ADD MSTORE POP JUMP JUMPDEST PUSH1 0x0 PUSH2 0x9B4 PUSH1 0xC DUP4 PUSH2 0x7E5 JUMP JUMPDEST SWAP2 POP PUSH2 0x9BF DUP3 PUSH2 0x97E JUMP JUMPDEST PUSH1 0x20 DUP3 ADD SWAP1 POP SWAP2 SWAP1 POP JUMP JUMPDEST PUSH1 0x0 PUSH1 0x20 DUP3 ADD SWAP1 POP DUP2 DUP2 SUB PUSH1 0x0 DUP4 ADD MSTORE PUSH2 0x9E3 DUP2 PUSH2 0x9A7 JUMP JUMPDEST SWAP1 POP SWAP2 SWAP1 POP JUMP JUMPDEST PUSH32 0x6E6F7420656E6F7567682073656E742100000000000000000000000000000000 PUSH1 0x0 DUP3 ADD MSTORE POP JUMP JUMPDEST PUSH1 0x0 PUSH2 0xA20 PUSH1 0x10 DUP4 PUSH2 0x7E5 JUMP JUMPDEST SWAP2 POP PUSH2 0xA2B DUP3 PUSH2 0x9EA JUMP JUMPDEST PUSH1 0x20 DUP3 ADD SWAP1 POP SWAP2 SWAP1 POP JUMP JUMPDEST PUSH1 0x0 PUSH1 0x20 DUP3 ADD SWAP1 POP DUP2 DUP2 SUB PUSH1 0x0 DUP4 ADD MSTORE PUSH2 0xA4F DUP2 PUSH2 0xA13 JUMP JUMPDEST SWAP1 POP SWAP2 SWAP1 POP JUMP JUMPDEST PUSH1 0x0 PUSH2 0xA61 DUP3 PUSH2 0x69E JUMP JUMPDEST SWAP2 POP PUSH2 0xA6C DUP4 PUSH2 0x69E JUMP JUMPDEST SWAP3 POP DUP2 PUSH32 0xFFFFFFFFFFFFFFFFFFFFFFFFFFFFFFFFFFFFFFFFFFFFFFFFFFFFFFFFFFFFFFFF DIV DUP4 GT DUP3 ISZERO ISZERO AND ISZERO PUSH2 0xAA5 JUMPI PUSH2 0xAA4 PUSH2 0x891 JUMP JUMPDEST JUMPDEST DUP3 DUP3 MUL SWAP1 POP SWAP3 SWAP2 POP POP JUMP JUMPDEST PUSH32 0x4E487B7100000000000000000000000000000000000000000000000000000000 PUSH1 0x0 MSTORE PUSH1 0x12 PUSH1 0x4 MSTORE PUSH1 0x24 PUSH1 0x0 REVERT JUMPDEST PUSH1 0x0 PUSH2 0xAEA DUP3 PUSH2 0x69E JUMP JUMPDEST SWAP2 POP PUSH2 0xAF5 DUP4 PUSH2 0x69E JUMP JUMPDEST SWAP3 POP DUP3 PUSH2 0xB05 JUMPI PUSH2 0xB04 PUSH2 0xAB0 JUMP JUMPDEST JUMPDEST DUP3 DUP3 DIV SWAP1 POP SWAP3 SWAP2 POP POP JUMP JUMPDEST PUSH1 0x0 PUSH10 0xFFFFFFFFFFFFFFFFFFFF DUP3 AND SWAP1 POP SWAP2 SWAP1 POP JUMP JUMPDEST PUSH2 0xB2F DUP2 PUSH2 0xB10 JUMP JUMPDEST DUP2 EQ PUSH2 0xB3A JUMPI PUSH1 0x0 DUP1 REVERT JUMPDEST POP JUMP JUMPDEST PUSH1 0x0 DUP2 MLOAD SWAP1 POP PUSH2 0xB4C DUP2 PUSH2 0xB26 JUMP JUMPDEST SWAP3 SWAP2 POP POP JUMP JUMPDEST PUSH1 0x0 DUP2 SWAP1 POP SWAP2 SWAP1 POP JUMP JUMPDEST PUSH2 0xB65 DUP2 PUSH2 0xB52 JUMP JUMPDEST DUP2 EQ PUSH2 0xB70 JUMPI PUSH1 0x0 DUP1 REVERT JUMPDEST POP JUMP JUMPDEST PUSH1 0x0 DUP2 MLOAD SWAP1 POP PUSH2 0xB82 DUP2 PUSH2 0xB5C JUMP JUMPDEST SWAP3 SWAP2 POP POP JUMP JUMPDEST PUSH1 0x0 DUP2 MLOAD SWAP1 POP PUSH2 0xB97 DUP2 PUSH2 0x78C JUMP JUMPDEST SWAP3 SWAP2 POP POP JUMP JUMPDEST PUSH1 0x0 DUP1 PUSH1 0x0 DUP1 PUSH1 0x0 PUSH1 0xA0 DUP7 DUP9 SUB SLT ISZERO PUSH2 0xBB9 JUMPI PUSH2 0xBB8 PUSH2 0x6D2 JUMP JUMPDEST JUMPDEST PUSH1 0x0 PUSH2 0xBC7 DUP9 DUP3 DUP10 ADD PUSH2 0xB3D JUMP JUMPDEST SWAP6 POP POP PUSH1 0x20 PUSH2 0xBD8 DUP9 DUP3 DUP10 ADD PUSH2 0xB73 JUMP JUMPDEST SWAP5 POP POP PUSH1 0x40 PUSH2 0xBE9 DUP9 DUP3 DUP10 ADD PUSH2 0xB88 JUMP JUMPDEST SWAP4 POP POP PUSH1 0x60 PUSH2 0xBFA DUP9 DUP3 DUP10 ADD PUSH2 0xB88 JUMP JUMPDEST SWAP3 POP POP PUSH1 0x80 PUSH2 0xC0B DUP9 DUP3 DUP10 ADD PUSH2 0xB3D JUMP JUMPDEST SWAP2 POP POP SWAP3 SWAP6 POP SWAP3 SWAP6 SWAP1 SWAP4 POP JUMP JUMPDEST PUSH1 0x0 PUSH2 0xC23 DUP3 PUSH2 0xB52 JUMP JUMPDEST SWAP2 POP PUSH2 0xC2E DUP4 PUSH2 0xB52 JUMP JUMPDEST SWAP3 POP DUP3 PUSH32 0x7FFFFFFFFFFFFFFFFFFFFFFFFFFFFFFFFFFFFFFFFFFFFFFFFFFFFFFFFFFFFFFF DIV DUP3 GT PUSH1 0x0 DUP5 SGT PUSH1 0x0 DUP5 SGT AND AND ISZERO PUSH2 0xC6D JUMPI PUSH2 0xC6C PUSH2 0x891 JUMP JUMPDEST JUMPDEST DUP2 PUSH32 0x8000000000000000000000000000000000000000000000000000000000000000 SDIV DUP4 SLT PUSH1 0x0 DUP5 SLT PUSH1 0x0 DUP5 SGT AND AND ISZERO PUSH2 0xCAA JUMPI PUSH2 0xCA9 PUSH2 0x891 JUMP JUMPDEST JUMPDEST DUP3 PUSH32 0x8000000000000000000000000000000000000000000000000000000000000000 SDIV DUP3 SLT PUSH1 0x0 DUP5 SGT PUSH1 0x0 DUP5 SLT AND AND ISZERO PUSH2 0xCE7 JUMPI PUSH2 0xCE6 PUSH2 0x891 JUMP JUMPDEST JUMPDEST DUP3 PUSH32 0x7FFFFFFFFFFFFFFFFFFFFFFFFFFFFFFFFFFFFFFFFFFFFFFFFFFFFFFFFFFFFFFF SDIV DUP3 SLT PUSH1 0x0 DUP5 SLT PUSH1 0x0 DUP5 SLT AND AND ISZERO PUSH2 0xD24 JUMPI PUSH2 0xD23 PUSH2 0x891 JUMP JUMPDEST JUMPDEST DUP3 DUP3 MUL SWAP1 POP SWAP3 SWAP2 POP POP JUMP INVALID LOG2 PUSH5 0x6970667358 0x22 SLT KECCAK256 0xC1 0xE NOT SWAP7 LT 0xE2 DUP10 EXP 0x29 CALLER PUSH19 0xD502606CB4D437DA59267E4F54CCA43E01826F DUP6 JUMPI PUSH5 0x736F6C6343 STOP ADDMOD ADDMOD STOP CALLER "
				},
				"gasEstimates": {
					"creation": {
						"codeDepositCost": "685800",
						"executionCost": "47093",
						"totalCost": "732893"
					},
					"external": {
						"addressToAmountFunded(address)": "2836",
						"founders(uint256)": "5044",
						"fund()": "infinite",
						"minimumUsd()": "2407",
						"owner()": "2558",
						"withdraw()": "infinite"
					}
				},
				"methodIdentifiers": {
					"addressToAmountFunded(address)": "3e47d6f3",
					"founders(uint256)": "d8e75f62",
					"fund()": "b60d4288",
					"minimumUsd()": "098de820",
					"owner()": "8da5cb5b",
					"withdraw()": "3ccfd60b"
				}
			},
			"storageLayout": {
				"storage": [
					{
						"astId": 56,
						"contract": "contracts/FundMe.sol:FundMe",
						"label": "minimumUsd",
						"offset": 0,
						"slot": "0",
						"type": "t_uint256"
					},
					{
						"astId": 59,
						"contract": "contracts/FundMe.sol:FundMe",
						"label": "founders",
						"offset": 0,
						"slot": "1",
						"type": "t_array(t_address)dyn_storage"
					},
					{
						"astId": 63,
						"contract": "contracts/FundMe.sol:FundMe",
						"label": "addressToAmountFunded",
						"offset": 0,
						"slot": "2",
						"type": "t_mapping(t_address,t_uint256)"
					},
					{
						"astId": 65,
						"contract": "contracts/FundMe.sol:FundMe",
						"label": "owner",
						"offset": 0,
						"slot": "3",
						"type": "t_address"
					}
				],
				"types": {
					"t_address": {
						"encoding": "inplace",
						"label": "address",
						"numberOfBytes": "20"
					},
					"t_array(t_address)dyn_storage": {
						"base": "t_address",
						"encoding": "dynamic_array",
						"label": "address[]",
						"numberOfBytes": "32"
					},
					"t_mapping(t_address,t_uint256)": {
						"encoding": "mapping",
						"key": "t_address",
						"label": "mapping(address => uint256)",
						"numberOfBytes": "32",
						"value": "t_uint256"
					},
					"t_uint256": {
						"encoding": "inplace",
						"label": "uint256",
						"numberOfBytes": "32"
					}
				}
			},
			"userdoc": {
				"kind": "user",
				"methods": {},
				"version": 1
			}
		}
	}
}